:020000040800F2
:100000000050002021020008270200082B020008EF
:1000100043020008470200085F02000800000000D9
:10002000000000000000000000000000770200084F
:100030007B020008000000007F0200082908000879
:100040009102000891020008910200089102000844
:100050009102000891020008910200089102000834
:100060009102000891020008910200089102000824
:100070009102000891020008910200089102000814
:100080009102000891020008910200089102000804
:1000900091020008910200089102000891020008F4
:1000A00091020008910200089102000891020008E4
:1000B00091020008910200089102000891020008D4
:1000C00091020008910200089102000891020008C4
:1000D00091020008910200089102000891020008B4
:1000E000910200089102000891020008000000003F
:1000F0000000000000000000000000000000000000
:1001000000000000000000005FF808F100B583B0B7
:1001100000F0DEF8304B314A1360314A1360314B46
:10012000314A32498B4204D21168196004330432D7
:10013000F7E72A4B1A682E4B9A4200D0FEE7284B6D
:100140001A682C4B9A42F9D1234B2B4A13602B4A45
:1001500013602B4B02E000221A600433294A9342B9
:10016000F9D3254B1B6813B9244B1B6803B1FEE779
:1001700000F0BAF8694601A800F0A2F8224C234B1F
:10018000E41AA4100025AC4214DC214C214BE41AE3
:10019000A4100025AC4213DC0099019800F060FB2C
:1001A00005461D4C1D4BE41AA410002C0EDC2846FD
:1001B00000F084F8154B53F8253098470135E2E7F5
:1001C000144B53F8253098470135E3E7013C134BB6
:1001D00053F824309847E8E7BABADECA0000002096
:1001E00020000020000000209C08000824000020BF
:1001F00078563412325476982400002034000020BF
:100200002400002038000020BC020008BC020008C6
:10021000BC020008BC020008BC020008BC020008C6
:1002200008B5FFF773FF00BEFEE71EF0040F0CBF1A
:10023000EFF30880EFF309807146124A104700BEC1
:10024000FEE700BEFEE71EF0040F0CBFEFF30880D0
:10025000EFF3098071460C4A104700BEFEE71EF01E
:10026000040F0CBFEFF30880EFF309807146074AD3
:10027000104700BEFEE700BEFEE700BEFEE700BE80
:10028000FEE770473F0200085B02000873020008A7
:0402900000BEFEE7C7
:100294009C08000800000020240000209C0800089E
:1002A40000000000000000002400002038000020AE
:0802B400000000000000000042
:1002BC00FEE7000001230360014B0B60704700BF99
:1002CC000400002008B500F073F8024A024B9A6053
:1002DC0008BD00BF0000000800ED00E008B500F00C
:1002EC008FF808BD82B00023019300932C4A136849
:1002FC0043F4803313602A4B1B6803F400330093E0
:10030C00019B01330193009B1BB9019BB3F5A06FBB
:10031C00F1D1234B1B6813F4003F06D0012300934B
:10032C00009B012B04D002B0704700230093F7E729
:10033C001C4B1A6842F010021A601A6822F0030271
:10034C001A601A6842F002021A60A3F580535A68C8
:10035C005A605A685A605A6842F480625A605A6805
:10036C0022F47C125A605A6842F4E8125A601A68F5
:10037C0042F080721A600A4B1B6813F0007FFAD0AF
:10038C00074B5A6822F003025A605A6842F0020284
:10039C005A60034B5B6803F00C03082BF9D1C2E7DE
:1003AC00001002400020024008B5FFF79BFF08BD7B
:1003BC0008B5104B1A6842F001021A6059680E4ACF
:1003CC000A405A601A6822F0847222F480321A6051
:1003DC001A6822F480221A605A6822F4FE025A60CB
:1003EC004FF41F029A60FFF7DFFF044B4FF00062DF
:1003FC009A6008BD001002400000FFF800ED00E01C
:10040C001F4B5B6803F00C03042B15D0082B17D083
:10041C001BB11C4B1C4A1A6002E01A4B1A4A1A6098
:10042C00174B5B68C3F30313184AD35CDAB2154954
:10043C000B68D3400B607047124B134A1A60EFE7FE
:10044C000F4A53685268C3F38343023312F4803F5C
:10045C000AD00B4A526812F4003F0BD00C4A02FB34
:10046C0003F3084A1360DBE7094A02FB03F3054A6E
:10047C001360D5E7044A02FB03F3024A1360CFE78B
:10048C00001002401C00002000127A000C0000201A
:10049C0000093D0010B4012827D018B1022847D01C
:1004AC0010BC7047072912D90E29F9D8A1F10804FC
:1004BC00E4B2314B5968A4000F20A04021EA00019E
:1004CC005960586802FA04F101435960E8E72A4B75
:1004DC00186889000F248C4020EA04001860186802
:1004EC0002FA01F101431960DAE7072912D90E2942
:1004FC00D6D8A1F10800C0B2204B596880000F2457
:10050C00844021EA040159605C6802FA00F121433D
:10051C005960C5E7194B186889000F248C4020EAF4
:10052C0004001860186802FA01F101431960B7E77A
:10053C00072912D90E29B3D8A1F10803DBB2104850
:10054C0041689B000F249C4021EA040141604468EF
:10055C0002FA03F121434160A2E7094B18688900B4
:10056C000F248C4020EA04001860186802FA01F18C
:10057C000143196094E700BF00080140000C0140E2
:10058C0000100140012817D010B1022827D0704765
:10059C00012A0AD0002A2DD11A48C368012202FA76
:1005AC0001F123EA0101C16070471648C36802FAE1
:1005BC0001F11943C1607047012A09D0D2B9124820
:1005CC00C368012202FA01F123EA0101C1607047FC
:1005DC000D48C36802FA01F11943C1607047012A42
:1005EC0009D03AB90948C368012202FA01F123EA99
:1005FC000101C16070470548C36802FA01F1194353
:10060C00C160704700080140000C0140001001401F
:10061C00012810D010B102281AD07047134B1A6859
:10062C00002018601A680A431A605A6858605A68A1
:10063C001143596070470E4B1A68002018601A68F5
:10064C000A431A605A6858605A68114359607047D7
:10065C00084B1A68002018601A680A431A605A6816
:10066C0058605A6811435960704700BF0008014038
:10067C00000C014000100140012806D010B10228E6
:10068C0006D07047044BD9607047044BD960704753
:10069C00034BD960704700BF00080140000C0140BB
:1006AC0000100140002207E000BF01339BB2B3F5FC
:1006BC00257FF9D3013292B2B2F5257F01D2002306
:1006CC00F5E7704710B50446012206211046FFF7E6
:1006DC0059FF002207210120FFF754FF214600207B
:1006EC00FFF7CAFF012208211046FFF74BFFFFF767
:1006FC00D9FF002208210120FFF744FFFFF7D2FFAA
:10070C0010BD10B50446002206210120FFF73AFF68
:10071C00002207210120FFF735FF21460020FFF7BB
:10072C00ABFF012208211046FFF72CFFFFF7BAFFA1
:10073C00002208210120FFF725FF012C00D010BD5D
:10074C00022000F055F8FAE708B502220621012034
:10075C00FFF7A0FE022207210120FFF79BFE0222D9
:10076C0008210120FFF796FE4FF022310020FFF701
:10077C004FFF3820FFF7C5FF0F20FFF7C2FF012006
:10078C00FFF7BFFF0620FFF7BCFFFFF78BFF08BD8D
:10079C00034B4FF480321A60043301221A60704705
:1007AC00001002401F291CD801280BD010B10228C0
:1007BC0010D07047012303FA01F10A4A13680B4366
:1007CC0013607047012303FA01F1074A13680B43C6
:1007DC0013607047012303FA01F1044A13680B43B9
:1007EC0013607047141002401C1002401810024095
:1007FC00094B58601A6842F001021A60064B1B68DC
:10080C0013F4803FFAD0044B1A6842F001021A60CC
:10081C0000225A609A60704710E000E008B50A4B5D
:10082C001B785BB9094B1A6822F002021A601A682D
:10083C0042F001021A6000225A609A60044B1B6855
:10084C009847024B1B6808BD3000002010E000E008
:10085C002C00002008B5FFF79BFF02210846FFF78C
:10086C00A1FF03210220FFF79DFFFFF76DFF412041
:10087C00FFF728FF4220FFF725FF4420FFF722FF58
:0E088C004520FFF71FFF4620FFF71CFFFEE789
:10089C0078563412280000200000000000000000F0
:1008AC0000000000010203040607080900A24A0424
:0408BC0032547698A4
:040000050800010DE1
:00000001FF
