:020000040800F2
:100000000050002021020008270200082B020008EF
:1000100043020008470200085F02000800000000D9
:10002000000000000000000000000000770200084F
:100030007B020008000000007F020008FD060008A7
:100040009102000891020008910200089102000844
:100050009102000891020008910200089102000834
:100060009102000891020008910200089102000824
:100070009102000891020008910200089102000814
:100080009102000891020008910200089102000804
:1000900091020008910200089102000891020008F4
:1000A00091020008910200089102000891020008E4
:1000B00091020008910200089102000891020008D4
:1000C00091020008910200089102000891020008C4
:1000D00091020008910200089102000891020008B4
:1000E000910200089102000891020008000000003F
:1000F0000000000000000000000000000000000000
:1001000000000000000000005FF808F100B583B0B7
:1001100000F0DEF8304B314A1360314A1360314B46
:10012000314A32498B4204D21168196004330432D7
:10013000F7E72A4B1A682E4B9A4200D0FEE7284B6D
:100140001A682C4B9A42F9D1234B2B4A13602B4A45
:1001500013602B4B02E000221A600433294A9342B9
:10016000F9D3254B1B6813B9244B1B6803B1FEE779
:1001700000F0BAF8694601A800F0A2F8224C234B1F
:10018000E41AA4100025AC4214DC214C214BE41AE3
:10019000A4100025AC4213DC0099019800F05AFB32
:1001A00005461D4C1D4BE41AA410002C0EDC2846FD
:1001B00000F084F8154B53F8253098470135E2E7F5
:1001C000144B53F8253098470135E3E7013C134BB6
:1001D00053F824309847E8E7BABADECA0000002096
:1001E0002000002000000020B4A800082400002007
:1001F00078563412325476982400002034000020BF
:100200002400002038000020BC020008BC020008C6
:10021000BC020008BC020008BC020008BC020008C6
:1002200008B5FFF773FF00BEFEE71EF0040F0CBF1A
:10023000EFF30880EFF309807146124A104700BEC1
:10024000FEE700BEFEE71EF0040F0CBFEFF30880D0
:10025000EFF3098071460C4A104700BEFEE71EF01E
:10026000040F0CBFEFF30880EFF309807146074AD3
:10027000104700BEFEE700BEFEE700BEFEE700BE80
:10028000FEE770473F0200085B02000873020008A7
:0402900000BEFEE7C7
:10029400B4A800080000002024000020B4A800082E
:1002A40000000000000000002400002038000020AE
:0802B400000000000000000042
:1002BC00FEE7000001230360014B0B60704700BF99
:1002CC000400002008B500F073F8024A024B9A6053
:1002DC0008BD00BF0000000800ED00E008B500F00C
:1002EC008FF808BD82B00023019300932C4A136849
:1002FC0043F4803313602A4B1B6803F400330093E0
:10030C00019B01330193009B1BB9019BB3F5A06FBB
:10031C00F1D1234B1B6813F4003F06D0012300934B
:10032C00009B012B04D002B0704700230093F7E729
:10033C001C4B1A6842F010021A601A6822F0030271
:10034C001A601A6842F002021A60A3F580535A68C8
:10035C005A605A685A605A6842F480625A605A6805
:10036C0022F47C125A605A6842F4E8125A601A68F5
:10037C0042F080721A600A4B1B6813F0007FFAD0AF
:10038C00074B5A6822F003025A605A6842F0020284
:10039C005A60034B5B6803F00C03082BF9D1C2E7DE
:1003AC00001002400020024008B5FFF79BFF08BD7B
:1003BC0008B5104B1A6842F001021A6059680E4ACF
:1003CC000A405A601A6822F0847222F480321A6051
:1003DC001A6822F480221A605A6822F4FE025A60CB
:1003EC004FF41F029A60FFF7DFFF044B4FF00062DF
:1003FC009A6008BD001002400000FFF800ED00E01C
:10040C001F4B5B6803F00C03042B15D0082B17D083
:10041C001BB11C4B1C4A1A6002E01A4B1A4A1A6098
:10042C00174B5B68C3F30313184AD35CDAB2154954
:10043C000B68D3400B607047124B134A1A60EFE7FE
:10044C000F4A53685268C3F38343023312F4803F5C
:10045C000AD00B4A526812F4003F0BD00C4A02FB34
:10046C0003F3084A1360DBE7094A02FB03F3054A6E
:10047C001360D5E7044A02FB03F3024A1360CFE78B
:10048C00001002401C00002000127A000C0000201A
:10049C0000093D0010B4012827D018B1022847D01C
:1004AC0010BC7047072912D90E29F9D8A1F10804FC
:1004BC00E4B2314B5968A4000F20A04021EA00019E
:1004CC005960586802FA04F101435960E8E72A4B75
:1004DC00186889000F248C4020EA04001860186802
:1004EC0002FA01F101431960DAE7072912D90E2942
:1004FC00D6D8A1F10800C0B2204B596880000F2457
:10050C00844021EA040159605C6802FA00F121433D
:10051C005960C5E7194B186889000F248C4020EAF4
:10052C0004001860186802FA01F101431960B7E77A
:10053C00072912D90E29B3D8A1F10803DBB2104850
:10054C0041689B000F249C4021EA040141604468EF
:10055C0002FA03F121434160A2E7094B18688900B4
:10056C000F248C4020EA04001860186802FA01F18C
:10057C000143196094E700BF00080140000C0140E2
:10058C0000100140012817D010B1022827D0704765
:10059C00012A0AD0002A2DD11A48C368012202FA76
:1005AC0001F123EA0101C16070471648C36802FAE1
:1005BC0001F11943C1607047012A09D0D2B9124820
:1005CC00C368012202FA01F123EA0101C1607047FC
:1005DC000D48C36802FA01F11943C1607047012A42
:1005EC0009D03AB90948C368012202FA01F123EA99
:1005FC000101C16070470548C36802FA01F1194353
:10060C00C160704700080140000C0140001001401F
:10061C00034B4FF480321A60043301221A60704786
:10062C00001002401F291CD801280BD010B1022841
:10063C0010D07047012303FA01F10A4A13680B43E7
:10064C0013607047012303FA01F1074A13680B4347
:10065C0013607047012303FA01F1044A13680B433A
:10066C0013607047141002401C1002401810024016
:10067C00034B00221A6040F247321A60704700BFE9
:10068C000030014038B505460C4600221146104694
:10069C00FFF778FF074BDD60064B9B6813F0800F6C
:1006AC00FAD1044BDB682370012200210846FFF7C6
:1006BC0069FF38BD00300140014B00221A607047C1
:1006CC0010E000E0094B58601A6842F001021A6011
:1006DC00064B1B6813F4803FFAD0044B1A6822F0C7
:1006EC0001021A6000225A609A60704710E000E024
:1006FC0008B50A4B1B689847094B1B785BB9094B2B
:10070C001A6822F002021A601A6822F001021A60BA
:10071C0000225A609A60034B1B6808BD2C00002015
:10072C003000002010E000E010B582B00446012239
:10073C0002210020FFF726FF0DF107012046FFF7ED
:10074C00A1FF02B010BD10B582B0044600220221F8
:10075C001046FFF717FF0DF107012046FFF792FF38
:10076C0002B010BD08B5012211460020FFF70AFFA8
:10077C006420FFF7A7FF002201211046FFF702FFBC
:10078C000320FFF79FFF012211460020FFF7FAFE1E
:10079C006420FFF797FF002201211046FFF7F2FEBD
:1007AC006420FFF78FFF012211460020FFF7EAFEBD
:1007BC000948FFF787FF1120FFF7C5FF0748FFF730
:1007CC0081FF3A20FFF7BFFF0520FFF7ADFF29207F
:1007DC00FFF7B9FF08BD00BFC0D40100F04902000B
:1007EC0038B505462A20FFF7AEFF0020FFF79CFF27
:1007FC000020FFF799FF0020FFF796FF7F20FFF7FF
:10080C0093FF2B20FFF79FFF0020FFF78DFF0020A9
:10081C00FFF78AFF0020FFF787FF9F20FFF784FF79
:10082C002C20FFF790FF00240AE035F81400000A92
:10083C00FFF77AFF15F81400FFF776FF0134A4B226
:10084C00B4F5A04FF1D338BD08B5FFF7E1FE022196
:10085C000846FFF7E7FE0C210220FFF7E3FE022219
:10086C0000210846FFF716FE022201210020FFF7A7
:10087C0011FE022211460020FFF70CFE0922052171
:10088C000020FFF707FE092207210020FFF702FED8
:10089C00FFF712FFFFF7ECFEFFF764FF0148FFF7CD
:1008AC009FFFFEE7B408000878A6DCB61B96197DFE
:1008BC009B85DD7D9C5DB60B582457448C099C9D13
:1008CC00134BA900B453DB951F46D944F8743FDF92
:1008DC005ACECF8B887A87924582C77294AD9BB6DD
:1008EC007BB631842662647A0382E479E469E4613C
:1008FC00036A036AE471C371E371E261C359AB72B9
:10090C00F393F9BCBAD576C558D579D599CD9ACD8E
:10091C0099CD79CD39CD39CDF8C459CD38C538BD3F
:10092C0017C5F2A394C4D4D476BC75ACD6B4B6AC0B
:10093C0075A414A455AC55AC55AC14A4319B8E8A3B
:10094C00CE92ED82CF8B74AD55ADB6B538C658C6C8
:10095C0078C658C6D6BDD6C594BD73BD4E9C6A73B9
:10096C0052AD94B5D7B559BE17C617C6F6C5B5BDA9
:10097C0053B510B5CFB4AEB4EC9BF1ACF6C554ADD9
:10098C0013A595B553B553BD33BD50A4EF9B2D8323
:10099C002D8372A455B5B6BDF7C5D6C554BD74C567
:1009AC0035BD9CE6FCCD7FDEBCAE5BAEDA9DFBA517
:1009BC007DAEBE9E5D7EF84CB84CB0229132177461
:1009CC006C11133B5F8E7B65D7135744BEB67ACE42
:1009DC00EE830A73A77A868A25828772139DBCBE22
:1009EC009CBEF083666A83822482047AE471046A72
:1009FC00036A046AE471E371C371E369C359496A18
:100A0C00F29B18C558C556C517CD58CD78CD59C5CC
:100A1C0059C559CD38CDF8C4D8C4D7BCF7BC79C5A5
:100A2C0078CDB5BC90A353C4B7C4B6B4B6B495AC2A
:100A3C0095AC14A434AC55AC34AC34AC72A38E8AE3
:100A4C00AD8ACC82AF8B33A535AD96B517BE37BE0C
:100A5C0058C658C6F6BDD6C5B5C573BDD0AC8B7BD4
:100A6C0011A594ADD7B519BEF7C517C6F6C5D5BD3A
:100A7C0073BD52BD10BDEFBC8EAC6F9C94B5F39C96
:100A8C0054AD95B594BDB4C533BD50A4EF9B8E93B6
:100A9C004D83EF9335B596BDD7C5B5C554BD13BDC4
:100AAC00B7CDB9CD7EDEDFEE1C9E5CB63BB67CBE10
:100ABC00588D9DA67FBF1EB7FEB6976CD97C134B85
:100ACC001764DF9EFF651B2D351BB96C5CBEAD7BBF
:100ADC00A7628562A57A4482047AC97A35A53BB6A9
:100AEC001BB6719CC67A407A2482247A24720472D2
:100AFC00046A047204720472E271036A0462A559F6
:100B0C008C7233A4B5B436C517CD17C537C537C5E8
:100B1C0058C538C5F8C4B7C4B7C4B7BCF7BC38C5DA
:100B2C0038C578D5D1ABB1AB96C4D7C4F7BC95ACAE
:100B3C0095AC34AC34AC75B455AC35ACD3ABCF92BE
:100B4C008D8ACC826E83919C14A575ADD6BDF6BDF5
:100B5C0017BE58C6F7C5D6C5B5C573BD31B50C8C17
:100B6C006E9474ADB6B5F8B537CE37C6F6C5B5BD0F
:100B7C0073BD52C531C510C56EA4AC8B74B595ADA3
:100B8C0017BED6BDB5BDD5C554C590AC2FA4CE9B54
:100B9C000B832D8314B555B596BDB5C595C534BD20
:100BAC0056C51AD6BEE61CD63CA65CB61ABEBDCE41
:100BBC009EC6FFC69FD73ECFBFDF7DAE1133DD850E
:100BCC00BF9E5C5D391CF903744B19952E6B265A2C
:100BDC0064628362A47A437A247A2B8BB7BDDAB52C
:100BEC00B9B554BD279320824482247A24720472AE
:100BFC000472E371E3710372237AE271046AA461F3
:100C0C00076AD09BD5BC94B4F6C4D6BCD5B416BD7B
:100C1C0037C5F6BC95BC75BC76B476B4B6B4B6B470
:100C2C00B5B417C517CDB1ABF3ABB6BC38C5D6BC94
:100C3C0075AC54AC75B475B475B455B4F3AB109BBA
:100C4C00AE92CD8A2D83EF8BD39C34A5D6B5D6B579
:100C5C0016BE58C617C6D6BD94BD73BD31B58F9C94
:100C6C00EC8332A5B6B5F7BD17C617C637C616C680
:100C7C00D5C593C531C5EFBC10BDED93F2A4B5B588
:100C8C00F7BD95B5B5BDB5BD33B5B1AC2FA4AD9B16
:100C9C004972CB7A73AC15B575BDD6C5D5C554BDE7
:100CAC0056BD9CEE3CDE1CD6BDBEFAA5D26B1BB667
:100CBC003FDF1FDFFFCE7FDFDFB6B022D2121F6E09
:100CCC009A3C7934D7237513105BAD62696A256A37
:100CDC00E259E57A226A8482447AC87AF3ACF8BD88
:100CEC00B8BDF2BCE68A2182447A447A247A047232
:100CFC00E371E371E37103720272E269C269A36189
:100D0C008459AA7A32AC94B4B5B4B5B4D5B4F5B4AC
:100D1C00D5B494B454B454B455B434A454A475A4F4
:100D2C0054A433A437CD95BCB2A313ACD6C4F7C42A
:100D3C0054AC34ACB6BCB6B495B455B414B451A3DD
:100D4C00CE92CD8AEC7AF093B39414A5B6B5D6B501
:100D5C00F6BD58C617C6B6BD74BD53BD31B5F0ACA3
:100D6C000D8C9094B5B5D7BD17C617C617C6F6C56A
:100D7C00F5CDB3CD72CD51C510BD2D9CCD8374B5C1
:100D8C00B6B5D6BDD6BD95B533BDF2B46FAC8C9BA4
:100D9C0028728B7AD19BF5B475BDB5C5F6CD55BD12
:100DAC0019D6FAD5FBD5FFF67CBE1BAE17851FCF27
:100DBC003EDF5FE79FDF5FC7F83B3A34BF559D2CA2
:100DCC009C34F733112B9053CA6A2762877A2572A9
:100DDC00E3692362A57A847A85824472A76AEE83DA
:100DEC008D7BA972247A438A447A237A037AE37935
:100DFC00E479C371E27102722272447AE371C269BE
:100E0C0082598351EC7A75AC329C53A473A472A4AE
:100E1C0032A452A453AC33AC54AC75AC75AC75A4C1
:100E2C0074A4139C55AC18C514B4B2A334ACD6C47A
:100E3C0054B454ACB6BCD6BCB6BC96BC75C4D3B317
:100E4C0030A3EE92ED8251A49294F39C95B5D5B556
:100E5C00D5B537C617C6B5BD74B553B552BD11B5AA
:100E6C00AFA42E8C74B5B6BD17C617C617C6F6C57B
:100E7C00D5CDB4CD92CD51CD6EA42E9C6B7B74B5DB
:100E8C00D6BD17C6F7BD75B595BD53BD8FACCCA3FC
:100E9C00687A6B7A5093B4B455BDB5C5F6CD76BDB2
:100EAC00B9CDBACD7DE63BDEDDCEBDBE9FD75ECFE4
:100EBC005DD73ED77FCF9B5455027F349B13590B84
:100ECC00F92B11338E6B2A83088BA7824582E47130
:100EDC00C46146724672657A8482847A646AAB8392
:100EEC00E972266A057AE381447A2372037A0482D2
:100EFC00E479C371E271027202720372A269C2696F
:100F0C00C26121490539CB51CC6A8B628B62EB7281
:100F1C002D836E8B8F93B193D29B34A454A4539C8A
:100F2C00549C349CD393D7B4B6C4F3ABF3AB95BCFD
:100F3C0034AC74B4B6BCD6BCD7BCD7BCB7C435BC07
:100F4C00B2AB509BCD8211A47294B29C74AD94AD93
:100F5C0074ADD6BDF6BD96BD54B553B572BD51BD7D
:100F6C0011AD4E9412AD95BDB6B5F7BD38C658CE81
:100F7C0036D6D4CD52C5F0BCD0B4D0B4CC8B12ADD7
:100F8C00B5BDD6BDD6BDB6B5B6BD53B5AFACECA3ED
:100F9C00A9824B7AB2A374AC14B574BDB5C597C510
:100FAC0057BD1BDE7DE698C5DDC63ECF7FD77ED70D
:100FBC007ED7BFD79C85740A76025602381B9633AF
:100FCC00D453D17B8D93E892C68A8582447AE4719E
:100FDC0025722672467224728482847A85724983C1
:100FEC00676A266A047204824472237A037A048242
:100FFC000482E479E271026A2372E3690472E269A1
:10100C008059214162200410463162182010243985
:10101C00285A49628B6AED720E7B2F7B7083D18BC1
:10102C00F28BB283D38B769CF7C496BC34AC54B49D
:10103C0034AC95BCD6BCD6B4B6B4D7BCB7C455BCCE
:10104C0014B491A38D7A70937294929434A554AD88
:10105C0033A595B5B6BD95BD13AD53B552BD92C56F
:10106C0010B58FA490A495C5F7BD17C617C617CE9B
:10107C00F6CDD5CD73CD31C511BDD0B4CC8B909CF4
:10108C00F6C517C6F8BDF8B5D6BD73B5F0B42DAC22
:10109C000B93CD8AD6CCB5BC15BD33B554B576BD46
:1010AC001BD6FBD5BACDFDF65ECF5DCF9EDF5ECFF6
:1010BC009FCFBD85932290012E016E01B874F694DA
:1010CC0010942FACADAB688A65828582A68286822D
:1010DC00667A46724672657A247A8682A682C87AC5
:1010EC000562256AE369E37103720372237A038252
:1010FC00E481E479E271E2692372E369E369C26134
:10110C00E159E03062184510252921080008A54155
:10111C0088626862EC724E7B2E730E73CD62AD6288
:10112C000E6B306B516BD38317BD95B496BC55B415
:10113C00F3AB95B417C5B6B4D7B4D7BCF8C476BC6A
:10114C0034B4D2A38D7A709351947194F2A474AD8B
:10115C0053AD13A554AD75B574B533B593C572BD08
:10116C0011B58FA48C8B53BDB6B5F7BDF7C5D6C5DD
:10117C00D6CD74C573C552C572C511BDAC8B2E9C32
:10118C00B5C5D6BD18BE39BED7B594B5F0B48EB4BE
:10119C006C9B32BC75C498D577CDD7CD96C598C508
:1011AC007DE69ACD5CDE9CE65ECF7ED75ED7DFD740
:1011BC00DC855112CC00CB00E910E7180D630E9CB6
:1011CC000CB48AB32A9B8A8A8682A682E782078B12
:1011DC00E78AA682867A867A2572467AA882887AE7
:1011EC000562E461236AE169E3690372037A0482AC
:1011FC00E479E4790372026A2372046AE469C259DD
:10120C00A149C0286210450841082008A118885A35
:10121C00675AA9628E7BCC628C5A128CAC5A4208EB
:10122C00A41827296A318B31507B38C596B414AC7D
:10123C0014ACB6BCD6BCD6B4D6B4D7BCF8C496BC29
:10124C0055BCF3ABCE8250937294919CB29C12A578
:10125C0053AD54AD75B575B554B553B5B4C572BD74
:10126C0010B58FA46B8B70ACD7BDF7C5D6BDD6C5EA
:10127C0074BD74BD53BD94CD31BD52C52EA46B83CA
:10128C0053BDD6BD59C639BE18BED6BD72BDAFB49E
:10129C000FB411BCF6CC99DD97CD59DE97C57CE621
:1012AC0079C5FCD55CDE98C59FDF5FCFFFDF5D960F
:1012BC00364CB21ACA00660827316A6A4C8B4A93BC
:1012CC00289B289B299BC98AE88A088B288B488BEA
:1012DC004893078BC682867A4672267A8982277251
:1012EC00C459A251236AE161C369E269E371047ACA
:1012FC00E479047203720372036A046AE461A35111
:10130C008241A020621043002100000002294752B4
:10131C00885A0B6BCF83262943084F6B4E6B4208C0
:10132C002208230004002500283195A4B6B4F4ABA0
:10133C0035B4D7BCB6B4D6B4B6B4F7BCD7C4B7BC06
:10134C0096BC14AC3093719B5194919CB19CD2A4DB
:10135C0053AD74B575B575B575B554BD73BD72BD6A
:10136C0051BD10BD0D9CED9B95BDB6BDF7CD54B5D3
:10137C0095C554BD94C553BDF1B431C5AFB4C87255
:10138C00D1ACB5BD79C619B6B7ADB5B552B5CFB4FC
:10139C0090BC31B416D578DDF9DD35C5F9DDB9D59C
:1013AC0079CD7DEEB9CD3AD67FDF5FCF1E8E3B6512
:1013BC00F95CCC090809EA418B726C934B938B93C3
:1013CC008B938A93699B48A34A9B4993698B699336
:1013DC0069932893E782A77A6672677A6882C569EF
:1013EC00E461A3510362C261A261C369E369E47160
:1013FC00E371E371E371E3690472046AE461C4515B
:10140C006341601841084100410840088439475A3B
:10141C00C8626C7BCE7BE51802002A426F6B830896
:10142C0022006408450087088410EF6AB6B414AC37
:10143C0014B4B6BCD6B4B6B495ACD7BC96BCB7BCD9
:10144C0096BC34AC929BB2A3F08B719CD2A4D1A469
:10145C0033AD74B554B576BDB6C595BD53B552BD57
:10146C0051C551C5AFB4AC93F3ACD6C574BD74BD06
:10147C0095BD95C554BD54BD32BDD0B4F0BC097BEF
:10148C00ED9395BD18BE39B6D8B5F6BD73B5F1BCA4
:10149C004FB40FB452BCB4C4D4C493B457D537CDE5
:1014AC00DBDD58C5DACD7CDE3FCFBFAE3F861B5DA2
:1014BC00985C8E324B4A6F7BAE93AC9BAB932D9C5E
:1014CC002E940D9C899B67AB2893488B488B488B3B
:1014DC002893E792C782C67A8672A77A2672A4618D
:1014EC000462E4598351836162598361C361E46985
:1014FC00E369E369E369C369C369C369C359C45147
:10150C00243940100321853120002008C1202652A7
:10151C00E86ACD838A52C41043000E5B52840519CD
:10152C0001002300650087080619EA41F39B14ACFF
:10153C00F3AB54B4D6BC95B475B4B6BC75B4B6BCE8
:10154C0096B414ACB2A3D3B3AF83719CD2A4919CC8
:10155C00F2A454B534AD76BDD7C5B5C573BD52BD77
:10156C0031BD10BDAFB44A8B509CB5C5F2B474BD3F
:10157C0075BD75BD75BDD6CDB4CDD0B431CDAB93E5
:10158C00E97A54B5B6B518B618B6F7BD94BD31BDE9
:10159C006FB42FB4CFAB52B4F1AB53BC12B4F6CC86
:1015AC0078D517C5FAD557BD9DA69E9E5E8E1A6D31
:1015BC00B35B7163D183CF8B2E9C6DA4ADAC6CA44B
:1015CC00EC8B2DA4AAA348A3499B4893688B489302
:1015DC002893E792C682C672E77AC77AE469835980
:1015EC00C359C45943518461225143598359C3612E
:1015FC00E361E369C269A3698269A261A359844961
:10160C00C3282010C541296B2529000860182552D4
:10161C006A7B6C7345292200882153844E638208AF
:10162C00220043008508450026196831AE7214ACBF
:10163C0034B434B495B474AC74B475BC54B496BCB2
:10164C0075B413ACB2A3F3B3CF8B519CB2A450942A
:10165C00909C13AD34AD75B5F7C5B5C573BD52BD12
:10166C0051C530C5AFBC498B2B7333BD74BD33BD75
:10167C0075BD75BDF7C5F7CDB5CDD0B431CD2DAC9D
:10168C002662D1A495B5F8B518BED6BDB5C511BDA9
:10169C00D0BC4FB4EEAB72BC73C453C4F2BB54BCDD
:1016AC00B5C4FAE599CDFACD353CDB7DB56C9053DC
:1016BC008F6B118C719C90A48FAC8EAC8DAC8CB458
:1016CC004BAC4CB4EBABCBA3AAAB89A3A99B899B2A
:1016DC0068A3489B078B077B287BC77A256AE4693C
:1016EC00E461A4594351645902512351435182512D
:1016FC00C259C261A2698269A371C369A3596449C1
:10170C0082200010E5494873A7390008E128676278
:10171C00C86A23316208A410C9317384093A2100C4
:10172C00620802004400A708A400C518CA513093EF
:10173C00F3AB34B474AC33A474B434B434B495BCD7
:10174C0095B413ACB1A3F3B3F093519CB2A42F9402
:10175C002F94F2A414AD75B5F7C5B5BD94BD72C583
:10176C0071C530C5F0C40DAC686270A474C5B5C544
:10177C0054BDD7C5F7C5D7C5B5C5F1BC11C5AFBCF0
:10178C004662CD8B75ADF8B519C6F7BDB5C511BDA3
:10179C0010C52DB42EB471C4B4D416DDB5D474CC2C
:1017AC00B5CC37CDFADD1EF77C5DF85CF1638D6B43
:1017BC004F946F9C8FA46FA48FACD0B4CFBCADC42E
:1017CC006BC42ABCEAABCB9349AB489B478B479382
:1017DC00479B269B068B067B287BC772C882E882B8
:1017EC006772E56184590351E24802492249624912
:1017FC00A151A1598261626962698161625123417F
:10180C0063200118E5510673A739001043392A7B70
:10181C00E5510008A3106C42CD4A337C46210000F0
:10182C00620863084400E8108300220089490B72A7
:10183C00509B13AC33ACF2A374B413AC13B4B5BC5F
:10184C0095BC33B491A3F3B3F093519CD2AC4F9CA1
:10185C000F8CB1A414AD96BD96BDB5BDF5CD93C599
:10186C0010BD8EB410CD31CDA96A2B7B74C5B5CD0E
:10187C00D6CD96BDF7C5F7CDB5CD52C531CD31CD51
:10188C00C87A0A7354ADD7B5F8BDF7C574BD11BD90
:10189C0010C54DB46FBCB2CCD4D4F6E417E516E544
:1018AC00D5CCF5C45BE61AD69384F06BAF6B308461
:1018BC0070944F9C6FA4F0BCD0BCAFBC8EB42CAC5D
:1018CC00CA9B899B68934893478B889B288B699309
:1018DC004A93098B0983C87AA77AE8820883E7823E
:1018EC00E77AC77A056A4251E238C138E1400249C9
:1018FC0022516359835962596359A4594349023996
:10190C0040180010A639AA5AC731C2280462E57AD9
:10191C00066BA0102421C952CB73AA6B810043081B
:10192C0022084210220885082400030068292A4A4C
:10193C006B5A2E83B1A3F2B3D2ABD2A375B4D29BA4
:10194C0095AC54ACD3A3F3AB0E942F94F4AC739C22
:10195C00D083B29CD19C53AD95BDD6CD73BD31BD5A
:10196C0051C5B3D552CD54CDCD9B676A53C554C523
:10197C00B6C5B7BDF8C518C6D6C594C572C572CD67
:10198C00EC9B0552D2A475B517BEB7CDF3C432C5C6
:10199C0051C5CFBC0FC473DCF7E4F7CC58CD97D549
:1019AC0097D536CD37D59AED117431747284718C0C
:1019BC002F8C709CB0AC4EA40DA4ECA3AB9B8A9363
:1019CC00899BAA9BCAA3EAA3C9A3899BCAA34993CF
:1019DC006A930983C87AC87A08832883288B28835A
:1019EC0008830883A77A456A63492249E140E140AC
:1019FC00E148225142594259835963516349A130FC
:101A0C0020182010E328CA62484AE2288672C57A58
:101A1C00A56A0121C218C95A8A73A74A241923003E
:101A2C002208210843084508A6108929EA39A93952
:101A3C004A524B62AD822F9BF2B3F3AB70939193EE
:101A4C0013A433AC91A3D2B30E94B1ACB3A4529CF7
:101A5C00F08BEF8333AD33AD54B574BD94C593CDDA
:101A6C00B3D593D532CDD2C46FAC26622EA413BDA0
:101A7C00B6C5B7BDD7BDF8C596BD94C573CD72CDEF
:101A8C008FB4265AEE8B75BDB6B5B6C513BDF1B481
:101A9C00AFAC8FBC50C452CCD6D479D558D577D5F1
:101AAC0018E697D578D59AE593849284318430845E
:101ABC00B19C70A4ED93AC93CC9BCB9B0CA44DAC84
:101ACC008DB44CB40BACEBA30BAC0AA4CAA3AA9B6D
:101ADC00088B298B877A09836A93698B698B699345
:101AEC00698B298B09830983C97A476AC56163515C
:101AFC00225122514251215142510149224902396C
:101B0C0043412339E228685A2321E230A77A857AA7
:101B1C00C5728662E5494A73C862A53187210711EF
:101B2C006300420064086708C608CF524C4267291C
:101B3C006B5209520A620A72EE8A0E8B0A6A2E8363
:101B4C00909B909B4F9BF2B32F9C50A4D3ACF093E3
:101B5C001094939CB3A4F3AC54B533B532B532BDE9
:101B6C0032C5F1BC52CDF1C4D0BCA77A876AF2B4AD
:101B7C0075BDB7C597B5F8BDB6BDB5C593CD72CD1E
:101B8C0031C5876AEA6A74BDB6B5D6BD94BD52B587
:101B9C00AFA48FB470BC52BC37C599D599DDB9E5EB
:101BAC0077D57BEEB9D579D5D38CB38C5184718C28
:101BBC00909CCD8B8B8B4EA44EAC4DAC6EB4AEBC0E
:101BCC00AEBC4CB40BAC0BA40BAC2BACCAA3499362
:101BDC00288BA77A298B69938A938A93AA93AA9BB9
:101BEC008A93498B498B4A8B2A8B09830983E98217
:101BFC00C882877A2672E4698359635922498451D1
:101C0C00065A6341E2302339E120E559C88AC68A75
:101C1C00068B688B29836A832652A639EA31CB213D
:101C2C0085006300860847004500EF524C3A262198
:101C3C00E941E9492A62096AC861A8614651EC8206
:101C4C002E938B828B8AB0BBEF9371A471A41094EA
:101C5C00119416B593A4B3A433B532B5D0A4B0ACDB
:101C6C00D1AC90B452CD32CDCFBCAB9BA4510E9C19
:101C7C0074BD96BDB7B5F8BDD7BDD6C593C572CDED
:101C8C0073CD4A83475A13B574B594B594AD93ADDF
:101C9C00F0AC6FB42FACB2AC77BD99C5BBDD9AED8F
:101CAC00D9E5D9D59CE6BAD572847284D394B19C0B
:101CBC00EE8B0E94B0ACCFB4CFB4AFB4AEB4AEBC6C
:101CCC008DB46CB46CB48DBC2BAC2BAC6993E7822B
:101CDC00088B08838A93AA9BAA93AA9BCA9BCA9B2C
:101CEC008A936A934A934A8B4A93298BE982E882B6
:101CFC00C882E88A098BE88A6672677A0562466A46
:101D0C00466AA451C551C45187622A8BE89228A314
:101D1C00479B279348936A93676A29526D428B19A4
:101D2C00C700A500A708270024004C3A8C420A32B1
:101D3C0067298739E851E859C86166516651AB8209
:101D4C00697AC771C779ECA2EF9B71A450A4EF9389
:101D5C00119C17BD74A494A492A453B5F1AC32B5E4
:101D6C0033BD12BD52C552CDCFC44DB4256A2662C7
:101D7C0033BD75BDD7BDF8BDD7BDD6C594C593CD04
:101D8C0052C52E9C475A90AC33B594B5B4ADD4B56E
:101D9C0092BDF1BC91B475BDB8B579B5DBDD9AEDEA
:101DAC001BF6FADDFAD5BDE6B38CD394F39CB19C4B
:101DBC006F9411B552BD8FAC8EB48EB4AEB4AEB4BC
:101DCC008DB44CAC4CB46CB44CB4CAA3288BE78225
:101DDC000783EBA38993CA9BEBA30AA4EA9BAA9B58
:101DEC008A936A936A934A8BE882E882E882E88253
:101DFC00C882C782A782877AC882A782C882C78214
:101E0C008772A77A09832A8B6A8B4A93289B68ABC3
:101E1C0067A3489B289B8AA34A93AA6A8D4A0D2ADA
:101E2C008B11AB198700E910CB216C3ACD42ED4AEE
:101E3C0066212529A74186492862C7596551E7695A
:101E4C008561C6718571489231A430A40F9C109C99
:101E5C00B4B417C575AC539C519C53B532B574BD15
:101E6C0095C594CD52C572CD10CD8EBC298B4249EF
:101E7C00EE9B75BDB7BD18BEF8BDF7C5B5C594CD05
:101E8C0052C5D0B4886ACD93F2AC74B594B593AD09
:101E9C00B3BD52C591B455BDD9BD3CC639C5BBED1A
:101EAC00BAED5BEE5BDE3BD6149D54A5139DD19C25
:101EBC0012AD11B5F0B4F0BC10BDF0BCCFB4AEB4E3
:101ECC00AEB4AEB4AEBCAEBC2CAC6993488BE7825E
:101EDC00CA9B0BA40BA42BA42BAC0BA4EA9B89933D
:101EEC0069936A934A93498B288B088B088B088BD0
:101EFC00E882E88A088B088BE88AA782E88AC7827E
:101F0C00C782088B289329936A93699B88A388AB13
:101F1C0088AB89AB49A329A38AA3EA7A8B5AAF422F
:101F2C004F2A903A2A11CC29D2632F53ED42ED4A15
:101F3C0067216629084AC749085AC6590349E24825
:101F4C0065692782C681E789109C51A46E8B93B476
:101F5C0017C596B4D7B475A4B3A413AD33AD54B5AB
:101F6C0075BD95C594C5B3CD50D5EFC4EBA3E46155
:101F7C00466A13B5B6BDF8BD18C638C6F6C594C5C5
:101F8C0073CD32C509834B8B53B574BDB5C5D4BD68
:101F9C00D4BDB4CDD2BC15BD3BCE1BBEFBC518C544
:101FAC0059D55CEE7CEEFACD75A5139DD29C12A58D
:101FBC0032B511B511B531BDF0B4CFB4AFB4CFB4A7
:101FCC00EFBC0FC5CEBC8DB4AB9B6A93E782AA9BCA
:101FDC000BA40BA44CAC8CB42BA4EA9BA9938993B3
:101FEC0069936A936A934A932893289349934993E4
:101FFC00499349934993499349934993499B699BC5
:10200C00499B2893289B489B699BA9ABA8ABC8B359
:10201C00C9B3AAB3ABB348AB48A34993CB6A2C4220
:10202C004F3290324E322C32B163705B0E4BED4A14
:10203C00E931C731AA52C741E751A651E240603895
:10204C00077A288AE781C681CF9BAF93B093D5BC22
:10205C0075B476B455AC99CDF6B4B4A434B575B5A5
:10206C00B5C595C5B4C5B4C571D530CD8EBCA67AF1
:10207C0083512E9CF7C5B7BD18BE38C6F6CD74C5B6
:10208C00B4CD73CDAB936B8B53B513B595CDF6CD5A
:10209C00F5BDD5C5F2BCD4BC99BD7DBEFBB538AD84
:1020AC0059C599D53CE6BEF613A5F29CF29C12A537
:1020BC0032B552BDF0B4AFACF0B4AFB4EFBC10BDA0
:1020CC00CFBCEFBCCEBC2CACAB9B288B498B6DB47E
:1020DC004CAC4BAC6CAC2AA4EA9BA99B899369933E
:1020EC00699369936A934A9328934993699B49939B
:1020FC00289328934993699B699B289B89A369A37F
:10210C0068A369A348A368A3A9ABE9B3E8B309B46E
:10211C00EAB3CBB3CBB369B368B3289B2A8B2A4AF7
:10212C000D32B03A4E326C329063705B8C424A3A4C
:10213C006621083ACB52284AA6418549C238035138
:10214C0028828992498A288ACF9B4E8BD19B13A4D3
:10215C00D7BC96B4F8BC58C538BD94A4B3A455B537
:10216C00B5C5D5C5B5C574BD92D530CD10CDAAA316
:10217C008359097B54BDB6BD18C638C617C6D5CD14
:10218C00B4CD52CD6FAC4A8B32AD53BD95CDF6CD9F
:10219C0036CEF5CDF3BC36C5FAC5FBAD5CAEDAADCB
:1021AC00B9BDB9C579CD9EFE13A5F29CF2A432AD92
:1021BC0012B5AFA48FA4AFACF0B4CFB4F0BC31C5A2
:1021CC0051C530C5CFBC0BA46A8B498B0CA4AEB4E3
:1021DC008DB46CAC4BAC0AA40AA4CA9B89938993AA
:1021EC008A93499349934993699B699B899B899BE2
:1021FC0048934893699B899B89A389A389A3A9AB1D
:10220C0089AB89ABA9AB88ABC9B3E9B309B42AB420
:10221C002BBC0BBCEBBB88B368B368B36A9BE751B0
:10222C0007192911CB215053B06B6F63ED528721E5
:10223C004200C8316A4A484A86394439C23845593D
:10224C006982AA92498A08828E938F939193D7BC04
:10225C0097B4D7BC17BD18BD18BD95A494A414B5DC
:10226C0074BD94BDB5BD96BD72CD92D5EFC40CAC0A
:10227C00E782A35190A4B6C5F7BD18C617C6D5C53D
:10228C00B4CD93CDD0BC6A8BD0A453BDD6CD17D6CC
:10229C0016CEB4C5F2BC56C5DDDEFAA55CA6BDB63D
:1022AC00BCBE3BC638C55AE5F2A4F2A412ADF1ACE3
:1022BC00D0ACAFACD0AC10B510BD31BD52C571C5F2
:1022CC0051C5EFBC4DACCB9B4A8BAB93F0BCCFBC98
:1022DC00AEB48DAC4BA42BA40BA4CA9B899389934D
:1022EC004993288B49938A9B89A3A9A3A9A3A9A342
:1022FC0089A3689B89A3A9A3A9A3C9AB88ABC9B3BC
:10230C00A9B388ABC9B388B3E8B309B42AB44CBC3D
:10231C004CBC2BBC2ABCA8B368B348B369ABA87A35
:10232C000D6330531053D26B8F636F636F63CD5259
:10233C00E931AB528A4A0842A6392439E340A661F6
:10234C00AA8ACB926A8A29828F9B6F9334AC56AC43
:10235C0018BDF7BCF7B459C518BD75AC54A4F3B48B
:10236C0033B594BDD6BDD7BD73C593CD10C5AEC422
:10237C00AAA3E461E97295C5B6BDF7C517C6D5C564
:10238C0094C5B3CD11C56A93B09C74B5F7CD57CE37
:10239C0016C694C5F2BC75BDFDD6FEBEFEB67FBF9B
:1023AC005EBFBCC6FADD96D412A5F2A4D1A4B0A42B
:1023BC00D0AC31B552BD51BD51BD93CD92CD52C5AE
:1023CC0010BD8EAC0CA4CB9BAB934EA431C5F0BC12
:1023DC00CEB4ADAC6CAC4CA4EB9BCA9B8A9369930A
:1023EC004993488B6993AA9BA9A3A9A3A9A3CAAB98
:1023FC00C9ABA9A3A9ABE9ABC9ABC9ABA9ABC9B371
:10240C00C9B3C9B3EABBC9B329BC49BC2AB42CBCF7
:10241C002CBC2ABC4ABCE9B389B369BB69B3088B31
:10242C002F947484F26BB26BD073AF6B8C4AED5AF1
:10243C00CC52EC520C5BCB52E74124392441A661BF
:10244C006A82CB926A8A4A828FA3709BD3A397B479
:10245C00D7B4D6AC99CD17BDD7BC35AC33ACB3B46F
:10246C0013B574BDD6BDD7BDB4C593C572CD10CD53
:10247C00EBAB49930562B0A4B5BDF7C517C6F6C55D
:10248C0093C593CD32C5AB93B09C74B5F6BD37C62E
:10249C00F6C594C512BD95BD1CCF9FCF5FBF1EB7AF
:1024AC005EBF1DC799CD35CC12ADB09C709CD1A42C
:1024BC0032B552BD52BD72C572C5B3CD72C531C5F0
:1024CC0031C5CFB44DAC0CA44EA411BD11BD30BD63
:1024DC00EFB4CEB46DAC4CA4EB9BEB9BCB9B8A9333
:1024EC006993899B899B899BA9A3A9A3CAABEAABD6
:1024FC00CAABC9ABC9ABE9B3E9B3A8ABE9B3C9B3D0
:10250C00C9B30ABC0ABC0ABC4ABC4ABC4BBC4CBCD6
:10251C002BBC2ABC6ABC4ABCAAB3AABBA9BB2893D5
:10252C00AC83D17B916B906B8F63B06BE9392A4292
:10253C006B4AAC4A2D5BCB52484A65416551A6614A
:10254C00287AAA8A6A828A824FA34F9BF3AB34A45F
:10255C0018BD38BDD6B4F7BC95BCF3ABD1AB72B4D7
:10256C00D3B454B5B6BDF7BDD6BDB5C573CD30CD5E
:10257C006DC4AAA3C7822A7B74BDF6C5F6C5F6C581
:10258C0094C573C552C52DA4B09C74B5B5B5F6BD34
:10259C00D5BD94C532C5B5BD9DDF7ECF9FCF3FC79E
:1025AC001EBF1AB633A455CCB19CB09CB0A412B5C6
:1025BC0072BD93C572C572C572C5B3CD93CD52C5EC
:1025CC0031BDAFB46EAC6EACF1B473C531BD51C599
:1025DC0010B5AEAC6DA42C9C0C9C0C9CCB9B6A9344
:1025EC006993899BA9A3899B89A3A9A3EAABEAABAD
:1025FC00E9B3E9B3E9B3E9B3E9B3A8B3E9BBC8B349
:10260C00C8B30ABC0ABC0ABC2AB44AB44ABC4BC400
:10261C002BC42AC46BBC4BBC0CBCCABBC9BB89A3A6
:10262C006C83B17BB173D07BD06B6F63C83187295E
:10263C00093AED522D5B0C5B8952A641C659A6692D
:10264C00E7716982287A8A8270B32FA391A354AC64
:10265C00F6B4D6AC58C595B454B490A34FA3F1AB13
:10266C0092B414B5B6BD16BE17BEB6C593CD30D553
:10267C00AECCEAB3899BA772D1ACD5C5D6BDD5C5B6
:10268C00B4C573C572C5D0B4909C54B595B5F6BDA0
:10269C00D6C594CD53CD94C57DE7BFD71EC71FCFEC
:1026AC001FDF57B513A4D7DC7094D1A432B532B563
:1026BC0072BD93C593C572C593C5D4CDB3CD52C568
:1026CC00D0B46EAC6EACCFBC53BD93C593C552BDEC
:1026DC00F0B4AEAC6DA42C9CEC9BEC9BAB9B6A93C6
:1026EC006993AA9BCAA3A9A3689BA9A3EAABEAB363
:1026FC00E9B309B409BC09BCE9B3E8B3E9BBE8B375
:10270C00C8B3E9BB0ABC0ABC0BAC2AB449BC4AC46A
:10271C002ACC2AC46BC44CB44DBC0BBCE9BBAAA3D9
:10272C00AA6A5073B17BCF7BD06B0D532A3A2A42E5
:10273C006B424E632D5B0C5BAA52A541C659C66910
:10274C000772287AE771EB8A71B350AB4F9B32A4B6
:10275C0094A417B595ACB6BCF2B3ED9ACC928FABF2
:10276C0032B4D3AC74B5F5B518BED6BDB4CD51D515
:10277C00CECC8DC4CAA36A8BCD8B94BDD5BDB5BD53
:10278C00D5C593C5B3CD52C590A434BD55B5D7BDF1
:10279C0017CED5D553D533C5FBDE1DC75FD79ED617
:1027AC0014949193F7CCD7D4F1A4F1A412AD52BDEB
:1027BC0052BD52BD72C593C5F4D5B3CD72C5F0B43C
:1027CC008FAC8FACD0BC31C573C573C5D4D551BDDE
:1027DC00EFB4AEAC6DA44DA4AB938B938B93AB9B2E
:1027EC00EBA3EAA3C9A3A99B489BA9A30AB40AB467
:1027FC00E9B30ABC29BC09BC09BC29C4E9BB09BCA6
:10280C00E9B3E9B34BC40ABC2DB44BB448BC49CCB6
:10281C0029CC2ACC6CC44CB46DBC2BC4E9BB8AA3A8
:10282C0049625073D17B6C73AF632D53ED520E5BC9
:10283C008C4A4E5B6E630C5B89526541C659C66906
:10284C00077A077AE7692C9351B3EE9A6F9BF19B49
:10285C00D5AC75A4B6AC34AC90A38B8A4A8A2EA3A3
:10286C00F1AB72A433ADB4ADF8B5F7BDB5CD30CD89
:10287C002FDDADD44CBC0CA42A7373B5B5BD94BD7F
:10288C00F5CDB4CDB4CD93CD91A414BDF4B4B6BDF7
:10289C0037CEF5D512D591BC13A5358DD6848E5A6D
:1028AC00CF7AB7CC18D53BF651B511AD11B511B5E2
:1028BC00F1B432BD72C592CD91CD70C5EEB4ADAC54
:1028CC00AFACD0B412BD74C573C593C572C511BD80
:1028DC00AFAC8EAC2CA4CA93898BAA93CA9BAA9B2F
:1028EC00CAA3EBABAAAB489B479BE9B30AB4E9B3C9
:1028FC002AB44ABC29BC4ABC4ABC4ABC29BC09BC47
:10290C0009BCE9BBE9BB2AC408B429C44BC42ABC22
:10291C0029B409BC2ABC2ABC09B44ACCEABB6CA3B6
:10292C00EC72F173D0734E6B8F6B2D5BAF6B0D5BD9
:10293C00EC522D5B4D6BCB62285A8549C659E6612A
:10294C00E761C761C7614D8B90B391AB70A3D2A304
:10295C00B19B53B411ACAEAB4BAB268AA479E9A2B4
:10296C00ADABAD9B92B414B575BDD6C5B6BD74C533
:10297C0073C531C5EFCC8DC4899B0CA493C5B5C56B
:10298C00D6C516CEF5CDF5CDB1B4D1B4F2B433BDB8
:10299C0017D6D6CD94CD90B450BCADABE771876152
:1029AC0093BC57CD5CE65CDECFA4AFA4B0A4F1AC75
:1029BC0032BD93C5B3CD92C550C50EB5ADAC8DAC83
:1029CC00AFACD0B412BD74C573C552C511BD8FACBC
:1029DC002CA4CB938A8B698B8993CA9BEBA3EBA317
:1029EC00EBABEBABA9A3489B67A30AB42AB409B41D
:1029FC002ABC4ABC4ABC6AC46AC44AC429BC29BCA5
:102A0C0009BCE9BBE9BB2AC429BC4AC44BC42ABCD7
:102A1C002ABC29BC09BCE9B309BC4AC4EAC38CA3CF
:102A2C002D73F173F1736E732D634D634E63AB4A6B
:102A3C00EC522D636D6BEB6228528549C6590762C7
:102A4C00C6598659286A4D8B70ABCD92B1ABB1A3E8
:102A5C00D1A3F1AB8EA34CA3A892C481C48187925D
:102A6C00888A4C9310A4F4B454B5B6C595BDD6CD94
:102A7C00D5CD72CD92DDCEC40CACAB9332BDB5C509
:102A8C0016CEF6C516CED5CD12BDF2BCD1B4F2B46D
:102A9C00F6D5F6D533C570B491C42C9B86614D9B8D
:102AAC0036D55BEEFBDD59C58F9CAFA411AD31B5AE
:102ABC0032BD52C551C530BD30C5AEAC6DAC8EAC5F
:102ACC008EAC8EACB0B412BDF0BCAFB46EAC0CA47A
:102ADC00AA93488B288B698BAA93EBA32CA42CACC0
:102AEC000BACEBABCAAB88A3A8AB2AB42ABC09B419
:102AFC002ABC4ABC6ABC8BC46AC46AC44AC429BC1A
:102B0C0029C4E9BBE9BB29C469C44AC42AC42ABC88
:102B1C002ABC29BCE9BBC8B3E8B3E8BB2BCC6BA37C
:102B2C002D7BF173B0736E73EB5A6D6B2C636A4A29
:102B3C000C5B2D636D6BEB62A641A549E659486AA7
:102B4C0007626549E7612C8390AB6FA30E934F9B93
:102B5C002E936E9BAEAB898A678AC481A37905825A
:102B6C00067AC982486A0F9C54B533B5B5C5D5C52C
:102B7C00B4CDD4D572D530CDCFBC8B8B8FACB4C586
:102B8C0016CEF6C537CEF5CD53BD6FA412BD90A4AD
:102B9C0094CDB5D554CDCDA32C936561497A93C40E
:102BAC00D9E5DAE579CD18BDD0A4F1AC32B531B5A3
:102BBC00F0B4F0B410BD10BD10C5ADB48DACAEB456
:102BCC006EAC4DA46EAC8FAC6DB42CACEBA3AA9BCD
:102BDC006993288B488BAA93CA9B0CA42CAC2CAC65
:102BEC002BAC2BAC0BACEAABE9B34ABC4BBC2ABC50
:102BFC004ABC6BBC6AC48BC46AC46AC44AC42AC4C7
:102C0C002AC409BCE9BB2AC469CC4AC40AC40ABC9C
:102C1C002ABC29BC09BCC9B3E8B366ABEAC34B9B5D
:102C2C008E83F17B8F6B2D6B8952EA5A2B63894A09
:102C3C000C5B4C6B6D6B2C6B6439C649075A276265
:102C4C002862244124410C836FA3ED928FA3F0B32F
:102C5C000C93AA8A698A8892068A83794271A4792C
:102C6C00067A687A2349A97213B533B5B5C595C5EB
:102C7C00D5CD15D693CD72CD31C50C9CCC8B73BDF7
:102C8C00D5C5F6C517CEF6C5B4C5F1ACF0B432C592
:102C9C0032C594D5B1C46C9BA669666131B4B8E5F4
:102CAC0099DD9ADDF7C49AD5F1ACD0ACB0A4CFAC19
:102CBC00F0B430BD30C50FBDCEB48EB48EB48EB46E
:102CCC004DAC4DAC4DAC2DA4EBABCAA3899B68931A
:102CDC004893489369938993EB9B0CA42CA42CAC3C
:102CEC004CAC4CB44CB44BB42AB44BBC4ABC4ABCF0
:102CFC004ABC6BC46BC48AC48AC46AC46AC44AC45E
:102D0C004AC429C409BC2AC469CC2ACCEAC3E9BB8D
:102D1C0009BC09BC0ABC09BC09BC46AB48AB6BA3DB
:102D2C00AF8B0D5B4E63EC620642C539CA5AA95291
:102D3C002B638D6B8D738D73C641C6410752E7595A
:102D4C00C651C338A230CA72B0A3ED92AFAB0C938C
:102D5C00EB92AA92688A0682E58142714271A47153
:102D6C006361E56943512349CD8B53BD33B594C59C
:102D7C00F6D5D5CD15D673BD52C5AFAC6A838FA42D
:102D8C0073BDB5C5F6C5F7BD93BD52BD6EA4D0BC21
:102D9C0032CDB0C4CDABCDAB287A6EA398E598DD1F
:102DAC0058D559D5F7C438CDB0A46FA48FA4F0B4BE
:102DBC0051BD71C52FBDAEB46DAC8EB48EB44DACDF
:102DCC002CA42CA40BA4CB9BA9A3899B689B279315
:102DDC002793489369936993EB9B0CA42CAC6DAC33
:102DEC006DB46CB46CB46BB44ABC4BBC4ABC4BBC3D
:102DFC006BBC6BC48BC46BC48BC48BCC8BCC8BCC9F
:102E0C006ACC2AC409C429C469CC2ACC0AC4E9BB3B
:102E1C00E9B309BC0ABC0ABCE8B3A7B307A34B9B34
:102E2C00CB6A05198A42CB5AA439C118274A885251
:102E3C00EA5A8D6B8D6B8D73485285390752075A40
:102E4C006449C2308130A6512E932E936EA3AEAB43
:102E5C002BA3E679C581E689C58163712269636913
:102E6C000259025122510149075270A433BD74C555
:102E7C0094C595C5F6CD94C594C552BDEC9BAB934A
:102E8C0032BD74BDF6C5F7BDF4CDB4CD11BD2DACBE
:102E9C008FC4ABABCCB36CAB8EAB15DD57DD17D59C
:102EAC0038D5B6C4D6C4D6C44F9C4F9CD0AC30BD1C
:102EBC0030BD0FBDCEB48DAC6DAC8EB48EB42DAC1C
:102ECC00ECA3EBA3CA9BA99B889B689B4893279375
:102EDC004893699BAA9BAA9BECA32CA46DAC8DB4C4
:102EEC008DB48DB48CB46CB44BBC4ABC4ABC6BBCBA
:102EFC006BBC8BC48BC48BC4ABCCABCC8BCC8BCC16
:102F0C008BCC4AC409C429C449C429C40AC40ABC08
:102F1C0009BC09BC09BC09BCC8B3C8BB28AB267A20
:102F2C0004310100C731AA52633120084329E63924
:102F3C00CA5A4C6B6C6B4C6BA95A85390752275A81
:102F4C006549034181308130AC7A6E934D9B0B9B6C
:102F5C00888A68928479A479437143698050E258D5
:102F6C00025902512259A3616449C97290AC53C5EC
:102F7C0054BD95BDB5C517CEF5CD93CDD0BC4A8B00
:102F8C008FB453C5B6BD18C6F5CDD4D531C50CAC70
:102F9C00E78A089BE99A488A10BC16DD94C458DD70
:102FAC00B6C495BCD6C498DD4F9C2E9C6EA4AFAC19
:102FBC00AEACADACADB4ADB48EB4AFBC8EBC2DACC0
:102FCC000CACEBA3CAA3CAA3A99B899B6893489397
:102FDC00699BAA9BCBA30CA40CA44DAC8EACAEB439
:102FEC00ADB4ACB4ACBCACBC4BBC4AB44ABC6BBC12
:102FFC006BBC8BC4ABCCABC48BC48BCCABCCABD4CD
:10300C00ABD46ACC29C429C428C409C40AC42AC4B0
:10301C002ABC0ABCEABBE9BB09BC87B368ABE1506C
:10302C0000088300A72989522329000080108431CD
:10303C00CA5A2C636C6B2C63CA5A074AC649C651D0
:10304C00A5512349A138203026492D8B0C8B2C9B64
:10305C000A9BA57984792371647123696048C250F5
:10306C00C15043618461425964516351C97AD1BCE6
:10307C0074C554BDB6C5F7CD16D6B4D531CD49936C
:10308C00ECA353C534BDF8CDD5D5B4D552CD6DBC5C
:10309C0069A348A3E89A0AA3AFBB32C4B6D4B6CC92
:1030AC0054BC74BC36CDF9E50E9CED934EA46DA4C6
:1030BC006CA4ADB4ADB48DB4AEBC6EB42DACECABF5
:1030CC00EBA3CAA3A9A3889B69936993488B6993C3
:1030DC008A93CB9BECA30CA42DA48EACAEB48DB474
:1030EC00ADB4ADBCACBC8BB46BBC6BBC6BBC6BBCC7
:1030FC008BC48BC48BC4ABCC8BC48BCCABCCCCD4A3
:10310C00ABD44ACC49C409C448C409C409C409BCD9
:10311C0009BC0ABC0ABC2ABC29BC87AB68AB83615E
:10312C00001062002419E639C218000081108531A4
:10313C00EB5A4C6B2C634D6B0B6B695A8541A6514A
:10314C00E7616451E248403001204A72EC8A0B93EB
:10315C00067A0682437123690361A258A250E35890
:10316C0044616461636163618459A4596359C97A88
:10317C0012C574C534B5F7D517DED4DD72DD499BA5
:10318C00E88AB0BC13BD34BD74D5B4DD31D54DB4B3
:10319C00EBB3CBB38AB36BAB2CAB11CC74D4B1AB5C
:1031AC0033B4D4C496D5B2B4ED93ED936EA48EAC77
:1031BC00AEACEEB4AEB4AEB4AEBC8EB44DB40CACDE
:1031CC00CBA3AA9B889B689B8A8B6A8B8A8B8A93DE
:1031DC00CB9BECA32DA42DA42DA48EACAEB48DB49E
:1031EC00ADB4ADBCACBC8BBC4ABC4ABC2AB44ABC6A
:1031FC008BC48BC48BC48BC48BC48BCC8BCCCBD4EB
:10320C00ABD46ACC49CCE8C328BC29C40AC40ABCD8
:10321C002ABC2ABC0AC42ABCE8B3A7B3A9B3C469A4
:10322C000008620041004008200840082429A5310C
:10323C00A9524C6B4C6B2C6BCB62895AE751A65143
:10324C00A55164594459025143288338CB828A8A48
:10325C00077A43692369E26003610359E358E35039
:10326C00E3500251435963618461A461635943592A
:10327C00A97AB1B475CDF3BCB5D5F5E5D0CC299B05
:10328C00868A8BA3F1C4F2BC33DD94E511D52CBC3A
:10329C000BB40BB4CBB38CB36DB36FB370B390AB47
:1032AC0032B435CD54C5EE934EA46FA4AFACCFACB5
:1032BC00EFB4EFB4AEB4AEB4AFBC8EB44DB4ECA3BB
:1032CC00AAA3899B689B689B8A8B8A8BAA8BCB93BE
:1032DC00EC9B2CA44DA44DAC6DA48EACAEB4ADB493
:1032EC00ADB4ADBC8CBC6BB44ABC09B42AB46BBCD9
:1032FC008BC48BC48BC48BC48BC48BCC8BCCABD40A
:10330C00ABD48ACC4ACCE7BB28BC28C42AC44AC458
:10331C004AC42AC42AC42AC429BCA8B368ABE57120
:10332C000010A2086100600840084008E3208539BD
:10333C008A5A4C730C6BEB62CA62AA6A8A6AE759A6
:10334C008551C661C569846146492128A6612872E8
:10335C00A6716469C679E679E679E779C6718669FA
:10336C00456144596461846984696361A469A46199
:10337C006459897A2FACB1BCD1C4D0CCABB36AAB95
:10338C0008A3E8920DB42EB470CCD0D48ECC0BB470
:10339C00EAB30BBCEBBB8BB30BA3AB9AAC92D0B325
:1033AC0072BCB6D5EE930E948FA4AFACAFAC8EAC12
:1033BC00AEACAEACAEB4CFBC8EB44DB40CACCBA3F7
:1033CC00AA9B899B899B899BAB8BAB8BCB93CB9318
:1033DC000C9C2CA44DA46DA46DAC8EACAEB4AEB450
:1033EC00ADBCADBCACBC8BBC6BBC09B42AB46BBC67
:1033FC006BBC6BC48BC48BC48BC4ABCCABCCABD411
:10340C00ABD48AD449CCC7BBE7BB08C409C42AC413
:10341C004AC42AC42AC42AC42AC4A8BB48AB67829B
:10342C006118620861002008000861184531C6491E
:10343C00E649A54164398541A641C649285AA65199
:10344C0085514872487AC5694659A3408240E77154
:10345C00E671077A27826882688A68824882077ACE
:10346C00E771C671A5698469636963698469A56933
:10347C008461A461677A2A938BA36AA329A38AAB7C
:10348C00ABB349AB49A36AAB8BB3ECBBEBBBCAB3D5
:10349C00CAB3EABBEBBB8BB3688A28820C9BF0AB3C
:1034AC0075DDAD930E9C2E9C2D9C6EA44EA44EA44B
:1034BC006EAC8FACAFB4F0BC6EB42CACEBA3CA9BAF
:1034CC00AA9B899B899B899BAB93CB93CB93EC9BBE
:1034DC000CA42CA44DAC6DAC6DA48DACAEB4CEB420
:1034EC00CEBCCDBCCDBCACBC6BBC2AB42AB46BBCC2
:1034FC004ABC4ABC8BC48BC46BC4ABCCABCCCBD45A
:10350C00ABD48ACC49CCC7BBA6B3C7BBE9C32AC4CE
:10351C002AC42AC40AC40AC409BCE9C368B3888A89
:10352C0082282100A210000020100329A541443953
:10353C00A1288128A128E23003312439854944414E
:10354C0064516872A98227726559E350E348E669B1
:10355C0088826882477A277A6882688248824782A2
:10356C004782277A067AC571C479C579A4698469BA
:10357C00C571C571E5712582878A089B6AAB49AB19
:10358C0069B3AABB48AB48B369AB89ABAAB3CABB96
:10359C00C9BBCABBCABBABB3067A277A4C9B91BCDE
:1035AC00CE9B2B83EE932E9CEB932D9C2D9C6EA48B
:1035BC008FACAFB4B0B4AFB44DAC2CA4EBA3CAA3D6
:1035CC00CA9B8A9B69934993AB93CB9BEC9B2CA492
:1035DC004CA46DAC6DAC8DAC8DACADACCEB4EEBCC6
:1035EC00EEBCCEBCADBC8CBC4ABC4AB44AB44ABCE2
:1035FC004ABC6ABC8BC48BC46AC48BCCABCCABD47A
:10360C008AD46ACC49CCE7BBA5B3A7BBC9C30AC44F
:10361C002AC42AC40BCC0AC42ACCE9C328B3A89266
:10362C00A2302108E32060188120E3300331C1303F
:10363C008028E2382341023984498549A54924412F
:10364C002441E761897AA982C6710359C6696882E7
:10365C00A882A98A67828882878A888A888A888AC7
:10366C00688A678247826882268AE579067A067AB2
:10367C00E579E579258A6592A69228A369AB69ABB1
:10368C0069AB68B388BB67BBA9B3A9B3A9BBC9BBFA
:10369C00A9BBA9BBAABB8AAB0572A4616C930B83B3
:1036AC0089728D8BAD930F9C0C9C2C9C0D9C6FA4E4
:1036BC00B0B4B0B4D0B46EAC4DAC0CA4EBA3EA9BDC
:1036CC00CA9B8A9B6A934A93CB9BEB9B0CA44CACF6
:1036DC006CAC6DAC8DAC8DACCEB4CEB4EEB40FBDC9
:1036EC00EFBCCEBC8DB46CB44ABC6BBC6BBC6BBCBD
:1036FC008BBC8BC48BC48BC46BC48BC48BCC8BCC5E
:10370C008ACC6ACC69CC08C485B386BBA8C3C9C3B0
:10371C00C9BBC9BBA9C3C9C3C8BB47B3E7AAC99A2C
:10372C00C3386210821820184018A128E2302241B8
:10373C00E1380141E138E238644985496549244161
:10374C0003394449486AEA82A571436147820A9366
:10375C00C98AE98A8782A88AA88AA78A878A8892CE
:10376C00878A678A688A888A468A268A478A47822D
:10377C0006826692A69A2492E7A2E7A228A389ABB6
:10378C0069B347B367C366C3C8B3C8BBE9C3C9C38E
:10379C0088BB89C3AABB69AB836183594662E6596E
:1037AC00C9724C83EF9BEF9B0C9CEB93CB934EA479
:1037BC0090ACD1B4F1BC6EAC4DAC0CA4EA9BCA9BE2
:1037CC00AA9B8A936A9B8B9BCB9BEBA32CAC6CAC7C
:1037DC006DB48CB48CB48CACADB4CEB4EEB40FBDB3
:1037EC000FC5CEBCADB48DB46BBC8BC48BBC6BBCE9
:1037FC00ACC4ACCC8BC48BC46BC46AC46AC46ACC76
:10380C006ACC69CC69CC08C424AB45B347B367B365
:10381C0047AB27AB27AB27AB06ABC5A2A6AA889AAA
:10382C0082302529C22000108120E230E23802418A
:10383C00E1382241224122416449A549654965414B
:10384C000339E238C6598972C579E679888A0A93B0
:10385C004B9BC98AE98AC88AE892A78A8792A79261
:10386C00C892A892A892C992A89A88928892C99252
:10387C00A8926692859AC6A2C6A2C69A49AB48A3DC
:10388C0028A368B346BB45CBA7ABC8B3E9C3C8C331
:10389C0068C3A9CBCAC369ABA361E0384241265ABD
:1038AC00A96A2C838D930FA4ED93AC8BCD8B4F9C7D
:1038BC00B1ACF1B4D0B48FACEC9B0CA4EBA3CAA309
:1038CC00AA9B69936993CA9B0B9C2CA44DAC6DACC1
:1038DC008EAC8DAC8DAC6DA4CEB40FBDEEBCEEBC7D
:1038EC000FC5EEBC8DB46CB4ADBC8CBC8CBC8BBCAD
:1038FC00ABC4ABCC8AC48BCCABCC8BCC8BCC6BCCD5
:10390C006ACC4ACC69CC49CCA8B3E6A2E3918289B3
:10391C00C389449AC5AAA5AA45AA05A20792287AE2
:10392C00A2306539A22081208028E2380239024178
:10393C0002410241014122416249C451A4518449CE
:10394C00644923416449E759C65989722B8B6C939E
:10395C002B930A8B0A93C98AE992E992E892C8924E
:10396C00C792A792C79AE89AC7A2C7A2E7A2E6A2F3
:10397C00C69AE69AE69AE6A2E6A2E6A247B326AB78
:10398C0005AB05AB86C386BB88BBA8BBC8C3C8BB8D
:10399C00C8BBE9BBC9B369A36259A0384449A55156
:1039AC00886A4B83AC8B2D9CCD93CD930E946FA4D6
:1039BC00D1B411BDD0B44EA4ECA32CAC0CACEBA385
:1039CC00EBA3AA9B8993CA9BEB9B2CA44CA46DAC38
:1039DC008EACAEB48DAC6DACCEB4EFBCCEBCCEBCAC
:1039EC00EEBCEEBCADB4ADBC6CBC8CBC8CBC8BC4A6
:1039FC00ACC4CBCC8BC48BC46AC46ACC8BCC8BCC04
:103A0C006ACC6ACC6ACC49CC09C468B3249A82814A
:103A1C0061796179C189C18961890179C581A66999
:103A2C00E33803310329C220A130E23802390241C4
:103A3C0002410241024122414249A451A45184490C
:103A4C008549444144418551E659CA7A6C938D9B12
:103A5C008C9B2B930A932A9B2A9B099BE99AE89AA5
:103A6C00E89AE89A089B28A308A308A328AB07A305
:103A7C0007A307A307A327AB07A3C6A207AB06ABF5
:103A8C0026B305B366BB46BB68BB88BBC8C3C8BB03
:103A9C00A8BBC8BBA9B369A3A361A0384349A5516E
:103AAC0067622A7B8B8B0D94CE8BCD8B0E9490A45E
:103ABC00F1B4F1B48FAC2DA44DAC6DB42CACEBA324
:103ACC00CAA3CAA3AA9BAA9BCB9B0BA42CA46DAC88
:103ADC008EB4AEB4AEB48DACAEB4EEBCCEBCAEB4A3
:103AEC00CEBCCEBCCDBCCEBC6CBC6BBC8CBC8BC4BD
:103AFC00ACC4CBCC8BC48BC449BC4AC46ACC8BCC75
:103B0C006ACC6ACC6ACC49CC29CCC8C3E6B285A2B3
:103B1C0085A26492E1816079C0688060E26060385F
:103B2C0081288120C228A128E238033903410241AF
:103B3C0022492249024122496351C451A551C55120
:103B4C00C551855144496551C659EA7A8D93AD9B4F
:103B5C008D9B4B932A936B9B4A9B2A9B099B089B9F
:103B6C00089B089B08A329A328AB28AB48AB48AB00
:103B7C0048AB48AB48AB48AB07ABE7A207ABE6AAF0
:103B8C0006AB06AB46B347BB68BB88BBC8C3C8C350
:103B9C0087BB87B388AB68A3247201494249C551DE
:103BAC00265A097B8B830C94EE8BAD830E94B0ACB0
:103BBC00D1B48FAC6EAC4EAC6EB44DAC0BACCAA3E6
:103BCC00CA9BCA9BAA9BAA9BAA93CB9B0CA44CAC4A
:103BDC008DACAEB4CEB4AEB4AEB4CEB4CEB4ADB493
:103BEC00ADB4ADBCCDBCCDBC6CBC4BB46BBC6BBC78
:103BFC008BC4ABC4ABC4ABCC49BC4AC48BCC8BCC54
:103C0C006ACC6ACC6ACC49CC29CCE8CB47BB07B38D
:103C1C0068B347ABC59A6492C281E48902610030F3
:103C2C004028A230C12802390339234123412341C2
:103C3C002349024902490249A459A459A559A5513D
:103C4C00C559A55185518551A551AA7AAD9BAD9BFE
:103C5C006C936C9B6B9B6B9B6BA34A9B299B099BEB
:103C6C00099B08A329A349AB49AB49AB48AB48AB6B
:103C7C0048AB48AB48AB48AB27AB28AB07ABC6A2AD
:103C8C00A6A2C6A206AB47B368BB88BBC9C3C8C350
:103C9C0087BB87B387B368ABA58A8259835105620A
:103CAC00055A08738A830C94CE83AE832F94B1A4E7
:103CBC00B0AC6FA46EAC6EB44DAC0CAC0BA40BA43E
:103CCC00EBA3CA9BAA9B89938993AA9B0BA42CA4B4
:103CDC004DAC8DB4AEB4CEB4ADB4AEB4ADB4ADB435
:103CEC008DB4ADB4ADBC8DB44BB40AAC4AB46BBCA2
:103CFC006ABCABC48BC48BC46AC46AC48BCC8BCC7B
:103D0C006ACC8ACC8AD46ACC08CC29D4A8CB47BB41
:103D1C0048B368AB26A347A3C69AC79A8371804061
:103D2C00402860288028C130E230233923412349C0
:103D3C0023490249024923518451A459A45984515D
:103D4C00A551855184516551A55127626C93CE9B29
:103D5C006C938C9B8CA36B9B6BA36BA34AA329A327
:103D6C0029A329A349A36AAB69AB69AB69AB89AB3E
:103D7C0068AB68B348AB48AB28AB08ABC7A2869A14
:103D8C00869AC6A2E7A228AB48B368BBA8C3A8C34F
:103D9C0087BB66B387B388B3E692E369E3612562B8
:103DAC00E451C76A6983EB8B2C73CE83709C70A42F
:103DBC004FA46FACAFB48EB46DB42CAC0BAC0BACDD
:103DCC00EBA3AA9B899389938993AA9BCA9B0BA467
:103DDC004CAC6CAC8DACADB48DAC8DACADB4ADB4F9
:103DEC00ADB4CDBCADBC6CB42AB4E9AB4AB48BBC9D
:103DFC008BC4ABC4ABC48BC48BC46AC48BCC8BCC10
:103E0C006ACC6ACC8ACC69CC28CC29D409D488C396
:103E1C0088BB88B366A367ABEABB48ABE89A8782DA
:103E2C0084596028A030A028C230023903412341B4
:103E3C0023492349234943514351645184518451AB
:103E4C008451645164514449A5518451EA82CE9BFA
:103E5C006C936C938CA38CA36BA36BA36BA34AA3E3
:103E6C004AA349A36AAB8BABAAAB8AABAAB3A9B3DF
:103E7C0089B388B368B348B307ABA6A26692C79A56
:103E8C0009AB8AB38BB3ABB369BB69BBA8BB88BBAB
:103E9C0067BB66B387B3A7B3069B437A2472446AA5
:103EAC00E3598562497BAA8B0B6BCE83509C2F9C6C
:103EBC00ED934EA48EB48EB48DBC4CAC2CAC0BA438
:103ECC00AA9BAA9BAA9B899369936993AA9B0BA40F
:103EDC004CAC4CAC6CAC8DAC8DAC8DACCDB4CEBC18
:103EEC00CDBCEEBCCDBC6CB42BB4E9AB6BBCACC4E0
:103EFC00ABC4CBC4ABCC8BC48BC46AC46AC46ACC11
:103F0C006ACC8ACC8AD469CC69D428D4E8CB67BB78
:103F1C0067B3A7BBA7B3A7B32AC4E9BBCABBCBB3D0
:103F2C00E88AC1388030A028C128E230E238023952
:103F3C0023412349234943512349435184518451FB
:103F4C00845184516451444985516449CA7A8D9392
:103F5C004B8B6C9B8CA3ACA38CA36BA36BAB8BAB71
:103F6C006BAB6AAB8BABABB3CBB3CBB3CAB3CAB390
:103F7C00C9B3A9B389B368B328AB869286928BB3C5
:103F8C000DC46FCC8FCC8FCC0CCCEBC3CAC3A8BBED
:103F9C0067B346B366B387B3059B8482647A446A7D
:103FAC0003626562287B898B4C73CE83509C0E9484
:103FBC00AC8BCC9B2DAC4CAC4CAC2CAC2CAC0BAC27
:103FCC00CA9BCA9BEBA3AA9B499328936993EBA327
:103FDC004CAC4CAC4CAC6CAC8DACADB4EEBCEEBCE7
:103FEC00CEBCEEC4EEBC6CB46BBC0AAC8BBCACC42B
:103FFC00ABC4CCCCCBCCABC4ABC48BC48BC46BCC64
:10400C008BCCABD4ABD48ACC69D449D449D4A7C318
:10401C0066BBA6BBA6BBC7BB08C46AD4E9BB2BC492
:10402C00ABAB83598028C130C128C128C130C238FC
:10403C000341024102412349234923496449645104
:10404C0064498451845144498449C6590A834C8B30
:10405C002B8BADA3ADA3ACA3ACAB8CAB8CABACAB93
:10406C00ACB3CCB3CCB3ECB3ECB3ECB3EBBBEBBBBE
:10407C00EABBCABBA9B389B348AB8692E89A6EC4B3
:10408C00D0D4F1D4F1CC32D5CFDC6DCC0BC4A9BBE0
:10409C0047B326AB46AB46AB25A3C48AA582437275
:1040AC00246A656A2883698B8D7B519CEE8BAC8B63
:1040BC006B8BCC9B4DAC4CB44CB44CB44CAC0BA4F7
:1040CC00CA9B0BA40BA4AA9B699B4993899B0BAC21
:1040DC004CAC4CAC6CACADB4CEB4CEB4EEBCEEBC13
:1040EC00EEBCEEBCCDBC8CBC6BBC4BB48BBCCCCC9A
:1040FC00ECCCECCCECCCABCCCCCCACCCABCC6BCC57
:10410C006ACC8BCCABD4ABD4AAD46AD469D4E8CB6C
:10411C0065BB85BB07CC07C427CC08CCE8C30AC455
:10412C00CBB3056AA130C128E228C128C128A1302F
:10413C00A130A130C138E2400341434943494349CE
:10414C008449845164498451276268724C8BCA82B9
:10415C004C93CDA38CA38CA36CA38CA3ACABCCB392
:10416C00CCB3EDB3EDB3EDB30DBC0CBC0CBC0BBCC4
:10417C000BBCEABBCABBCABB89B3E79A089BD0CCC1
:10418C008FC46FBCF1C453D5ECB349A30CC42CCC75
:10419C0067B305A346AB25A3059BC4928482036A2F
:1041AC00857AE782A67A8A93EF8B509CAD8B8B8BAA
:1041BC008B93EBA38EBCAEBC8DB46DB44CAC2CA469
:1041CC000BA42CAC0BACCAA38A9B699BAA9B4CB4CA
:1041DC008DB44CAC6CACADB4EEBCEEBC0EBD0FC52E
:1041EC000EC50EC5EEC4ADBC6BBC6BBC8CC4CCCCCC
:1041FC00EDCCEDCCCCCCACC4CCCCCCCCCCCC8BCC1A
:10420C008BCC8BCCABD4ABD4CBD4AAD48AD408CCA7
:10421C0065BB85C307D427CC06CC07CCE7CB09CC30
:10422C00AAB3E5718130C228E228C128C128C13067
:10423C00A13081288130A130E238023943416449F0
:10424C00644984498551C559CA7A2B830B83EA8208
:10425C008C9BADA36C9B8CA38CA38CABACABCDB368
:10426C00CDB3EDB30DBC0DBC2DBC0DBC0CBC0CBC4E
:10427C000BBC0ABCEABBEABBCAB38AABABAB4EBC49
:10428C004EB48FBC6FB411C56BA3299B6AAB0BC426
:10429C00A9BB06A3C49AC49AE59AC49284820272FA
:1042AC00657A078BC782699371A42F9CAC8B6B8B3F
:1042BC00AB9BCBA36DB48DB48DB48DB44CAC2CA492
:1042CC002CAC2CAC0BACEBA3CAA38A9BEBA3ADB46C
:1042DC00AEBC6CAC6CACCEB4EEBC0FBD2FC52FC558
:1042EC000FC50EC5EEC48DBC6CBC8CC4CCC4EDCC5F
:1042FC000DD50DCDECCCCCCCCCCCEDD4EDD4ACCC14
:10430C008BCC8BCCABD4ABD4ABD4ABD4ABD448D45C
:10431C00A6C3A6CB07D447D427CC06CC07CCE9CB75
:10432C0089BB05728030E228E228C228E230C23014
:10433C00C130812880286028C130E230434143419C
:10434C00434144498551A5590B838D93A97A0B8B15
:10435C00ADA38DA36CA38DA38CA3ADABCDB3CDB30B
:10436C00EDB30DB42EBC4EBC4EBC2DBC2CBC2CBC29
:10437C002CC42BC40BBC0BBCEBBBCBB38AAB6EBC41
:10438C00D0C432D511CDF1C4B0CCB0CC4ECCCBBB5B
:10439C00CABB27ABE5A2E59AE49AC492A48A02723E
:1043AC002372E78A4993ABA30F9C8C8B2A834A8B8D
:1043BC00CB9BCAA36DB4AEBC8DB46DB42CA42CA491
:1043CC004CAC2BAC0BA40BACCAA3CAA34CACCEBC50
:1043DC00CEBCADB4AEB40FBD0FBD2FC52FC52FC510
:1043EC000FC5EEC4CEC48DBC8CBCCDC4EDCC0DCDF4
:1043FC002ED50DCDEDCC0DCDCDCCEDCCCDD4CDD4AD
:10440C00ACCCACD4CBD4CCD4ABD4ABD4ABDC69DC9F
:10441C00E8D3E7D328D448D488D427CC07D4C8CB46
:10442C0068BB057A8030C228E130E230E230E230FD
:10443C00E230C13081288020A128E2302339233991
:10444C00023944498551645168720B8BA97A2C93BB
:10445C008DA36C9B4C9B6CA38DABADABCDB3EEB372
:10446C00EDB30EB42EBC4FBC4EC44EBC2DBC4DBCDB
:10447C004CC42CC42BBC2BBC0BBCEBB3ABABCFCC0C
:10448C004EBC0DAC72DD93DD4FCC6FCCD0DCECC3ED
:10449C00EBC328ABC59AC49AE59AE592C48A02721A
:1044AC00E271E78A699B499B4B83E97AC87A499305
:1044BC00EBA3EBAB6CB4CEBCAEB48EAC4DA42CA4C5
:1044CC004CAC2BAC0AA42BB4CAA30BAC8DB4CEBC95
:1044DC00EEBCEEBC0FBD2FBD50C550C550C52FC591
:1044EC00EEC4EEC4CEC48DBC8CBCCDC4CDCCEDCC56
:1044FC002ED52ED50DCD2ED5EDCCEDD4CDCCCCD41A
:10450C00CCD4CCD4CCDCCCD4CCD4ABD4ABDCAADCEB
:10451C0049DC29D449D48AD4AAD448CC08CCC8CBF9
:10452C0048BB2582C140A128E130E230E238E238B4
:10453C00E238E230C128A1288020A12802310239BA
:10454C0003418451855923490349E661897A4C9B7F
:10455C004C9B8DA36DA38DABADABCDB3EEB3EEB3D6
:10456C000EB40EB44EBC6FBC6FC44EBC4EBC4DC42E
:10457C004CC42CBC2BBC2BBC2CBC0CBCECBBAFCC97
:10458C008BAB4582ABAB4EBC0AABE9A20ECC4ED486
:10459C00ECCB69BB859AE5A2059BE4928382227AD7
:1045AC00237AC68AE7920472C97AE982498BEBAB0B
:1045BC008EBC6CBC4CB4ADB4CEBCAEAC6DA44DA436
:1045CC004CAC2BA4EAAB0AACEBA34CACAEBCEEBC33
:1045DC00EFBC0FBD2FBD50C550C550C550C50FC544
:1045EC00CEBCCEC4CEBC8DBC6CBCADC4CDCCEDCCE5
:1045FC000ECD2ECD0ECD0ED50ED5EED4EDD4CDCC1C
:10460C00CDD4EDDCCCDCCCD4CCDCCBDCABDCABDC8F
:10461C006ADC2AD44AD48BD4ABCC69C408CCE8CBA2
:10462C0068C366924251A128C138E238E238E238B8
:10463C00E238E230C230C2286020A120C228C23049
:10464C000341645164510349E348A561EA8A6D9BB7
:10465C004C9B8DAB8DABADABCDB3CEB3EEB30EB43B
:10466C000EB42EB44FBC6FBC6FBC6EBC6EBC6DC4B4
:10467C004DC44CBC2CBC2CBC4CC42CC40CC40CC4A5
:10468C00ECBB468AC479458AC9AA68A24BBB6FE4C5
:10469C006AC3EBCBE6A2C5A2E59AC4926382227AE6
:1046AC00237AA582C68AA269C87A298B8B9B4DB4C2
:1046BC000FCDCEC44CB4CEBCCFBC8EAC6DA46DA40F
:1046CC004DAC2CAC0BACEAAB0BAC6CB4CEBC0FC58C
:1046DC000FBD0FBD2FBD50C550C550C530C5EFBC6B
:1046EC00AEBCADBC8DBC6CB48CC48CC4ADC4EDCCB8
:1046FC00EDCC0ECD2ED50ECD0ED50ED5EED4EDD4F3
:10470C00CDD4EDDCECDCCCD4CBDCCBDCCBDCCBDC2F
:10471C008BDC2BD40BC46CC46BBC29BCC8BBC8CB06
:10472C0047BB869AE569C130C138E238E240E238CD
:10473C00E238E230E230E228A128A1208128A13021
:10474C00E340244944516559687AAA826C9B6D9B5D
:10475C006CA36DA36DAB8DABCEB3EEB30EBC2FBC07
:10476C002FBC4FBC6FBC90BC8FBC8FBC8EC48EC496
:10477C006DC44CBC2CBC2CC46DCC6DCC4DCCCBC303
:10478C00ECCB869AA3812592A591E69988AAEDDBBC
:10479C004AC32CDC48BB6492C49AE49A6282427A83
:1047AC00227A85820793247A6B93CCA3ABA32CB487
:1047BC00AEC4ADC42BACCEBCCFBC8EAC6DA46DA4C2
:1047CC006DAC4CAC2BB4EAAB2CAC6CACCEBC0FC50A
:1047DC002FC50FBD2FBD50C550C550C530C5EEBC43
:1047EC00ADBC8DBC8DBC4CB4ADC48CC4CDC4EDCCB7
:1047FC00CDC40ECD2ED5EECC0ECD0ED50ED5EED421
:10480C00EDD4EDDCECDCCCDCCBDCCBDCECE4ECE4B4
:10481C00ACE42BCCEBC34CBC2AB4E9AB66AB67BBAA
:10482C00C6B265922672E138A138E240E240E2401D
:10483C00E238E238E2300231E228A1206020A128DF
:10484C00E34003496559287A2B934C934C9B0B936B
:10485C00ADABADABCEB3EEBBEEBB0FBC0FBC2FBC48
:10486C004FBC6FBC90BC90BC8FBC8FBC8FC48EC433
:10487C006DC44CBC4CC44CC44CCC4DD44DCC0DCCA8
:10488C000DCC469AE489E48944896491E6998CD3E9
:10489C00ABD3ECD3CACBC5A2E59AE4926282638215
:1048AC006382A58A2793447ACBABECAB0BAC0AACF6
:1048BC002AB48CBC2CAC8DB4CFBCADB48CAC4BA49A
:1048CC006BAC8CAC4BAC2BAC8CB4ADB4EEBC0FC5A0
:1048DC002FC52FC52FBD0FBD30C530C50FC5CEBCE4
:1048EC00ADBC8CBC8CBC6CBCADC48CC4ADCCCDD4C0
:1048FC00EDD4CDCCCDCC0ED5EECCEDCC0ED52ED57D
:10490C002EDD0DD50DDD0DDDEDDCECDCCBE44CF559
:10491C00EBE428C4E9B30BB4ACABCDB3ADB32AAB69
:10492C00C99A6782677A2249A038C1380241E238B5
:10493C0023410341C1380241C138A130A12840189C
:10494C00E328644148628C938D938D936D936D9B9A
:10495C00AEA3EFAB0FB42FB430B430B450BC50BCDA
:10496C0070BC6FBC6FC46FC48EC48EBC8EC48EC43E
:10497C008EC46DC46DC46DC48DC48DC4CECC6DC4D9
:10498C006DCC49AB6592A279C3784481069ACDDB94
:10499C008BDB49CB6DE4E59AC592C592859A248A46
:1049AC00A48A058B679B0593ECAB0CB42BB40AACB7
:1049BC000AAC4CB40BAC6DB4CFBCAEB4ADB46CACF7
:1049CC006CAC8CB46CB46DB48CB48DB4CDBC0FC564
:1049DC002FC50FBD0FBD2FC52FC50FC5EEBC8DBC90
:1049EC006CB46CBC6CBC6CBC8DC4ADC4CDCCEDD407
:1049FC00EED4EDD4EDD40ED52FD50ED52ED52ED597
:104A0C000DD50DD52DDD2DDDEDDCECE4CBDCEAE4B4
:104A1C00EAE46ACC0ABCEBB3ABAB6BAB8CBBCDC3DF
:104A2C006BB3878A477AA561A038E140E23803412D
:104A3C0003390341E138E240E238C130A2282010AA
:104A4C0041182439CA722EA4CE9BCE9B8D9B8D9B74
:104A5C00EFAB0FB40FB430B430B450B470BC70BC06
:104A6C0070BC70BC6FBC6FBC8EBC6EBC8EC48EC474
:104A7C008EC46DC46DC48DC48DC48DC4EFD48DCC67
:104A8C006DCC69ABC79A258A03816489C8AA6EEC80
:104A9C0008CBC7BA6CE426A3C492C592A59A84929B
:104AAC00E5922593A7A3A7AB0CB42CB42BB40AACFA
:104ABC00E9AB2BB4EAA34DB4AEBCAEB4AEB48CB47B
:104ACC008CB4ADB4ADB4AEBCCDBCADB4CDBC0FC527
:104ADC002FC50FBD0FBD2FC52FC5EFBCADBC6CB422
:104AEC004CB46CB46CBC8CC48CC4ADC4EDCCEED4E6
:104AFC000ED50ED50ED50ED50ED50ED52FD54FDD28
:104B0C002ED50DDD2EDD2DDD2DE52CE5EBE40CEDAC
:104B1C000CE54ACCEABB0CBCECBBCBBBCBC3EBC3AC
:104B2C006ABBA792468206720249E140E2382341F1
:104B3C00033903410241E240E238C230C228611815
:104B4C000010C228CA722FA4CE9BCEA38D9BAD9B06
:104B5C002FB450BC30B470BC50BC70BC71BC91BC98
:104B6C0090BC90BC90BC6FBC6EBC6EBC8FC48FC430
:104B7C008EC46DC46DC48DC48DC4ADCCEFD48ECC3D
:104B8C006DCCABB349ABE8A2E699A8AACCD36EEC3A
:104B9C0065B2C6BAACE446A3E492E49AE5A2E49A00
:104BAC00459B459BA6A328BC4CB44CB44BB42AB42F
:104BBC000AAC2AB4CAA34DB4AEBCAEBCCEBCADB428
:104BCC008CB4ADBC8EBCAEBCEEC4CEBCEEBC0FC5C2
:104BDC000FC50FBD0FBD0FBD0FC5CEBC8DB44CB4F2
:104BEC004BB44CB48CC4ADC48CC4CDCC0ED50ED54A
:104BFC00EED40ED52ED52ED50ED50ED52ED54FDD09
:104C0C002EDD2EDD4EE52EE54DE56DED2CE52CED86
:104C1C00ECE44BD42BC46DCCEBBBCAC389BB28B31F
:104C2C00E7AAA7A2258AE5798359C140024123410D
:104C3C000339234123410241E238E230E330C320FF
:104C4C0020104018485A0F9CEFA3EEA38D9B8D9B10
:104C5C0030B470BC50B491BC71BC71B471B491BC23
:104C6C0090BC90BC90BC90BC6FBC8FBC8FC48FC4EC
:104C7C008EC46DC46DC48ECC8DC48ECCCFD48ECC72
:104C8C004DC4CCBBCCBBACBBA49167A2ABCBCAD341
:104C9C0044AAE5BAABE445ABE39A04A305AB05AB78
:104CAC0065AB649BA5A347BC2CB42CB44BB44BB4E0
:104CBC002AB44BB4CAA34DB4AEBCAEBCCEBCADB4DE
:104CCC008DB4AEBC8EBCAFBCEEC40EC50FC50EC54C
:104CDC000EC50FC50FC5EEBCCEBCADB46CB42BB4B9
:104CEC002BB44BB46CBC8CC4ADC4EDCC0ED50ED572
:104CFC00EDD40ED52EDD2ED54FDD2FD50ED50ED500
:104D0C000ED52EDD6FE54EE56DE5AEF52CE5ABDC95
:104D1C00ACDCCDDCADDC2BCC68B348B3E6AAA5AAE1
:104D2C00A5AAE7B22592058AC46980382249E238DF
:104D3C00234123412241234102390339C328E3286B
:104D4C008218001085410E9C30AC0FA4AE9BCEA3F4
:104D5C0050B470BC70BCB1C491BC91BC91B491B452
:104D6C0090BCB1BCB1BCB0C490BCB0C4B0C48FC416
:104D7C008EC46EC46EC48ECC8ECC8DC4AECC8ECC98
:104D8C004DC4ECBB0DBC0DBCC491A389E7B207BBF1
:104D9C0002A2C4B2CBECA6B3E39A04A325AB45ABF9
:104DAC0085ABC6ABA5AB47BC2CB42CB44CB48CBCFB
:104DBC006BBC4BB4CAA34DB4CFBCAEBCCEBCADB473
:104DCC008DB4AEBC8EBCAFBCCEBC0FC50FC5EEBC9B
:104DDC00EEBC0FC50FC5CEBCADBC8DB46CB44CB421
:104DEC004BB44BBC6CBC8CC4CDC40ECD2ED50ED5E7
:104DFC000ED50ED52ED54FDD0ED5EECCEECCEECCA1
:104E0C000ED54FDD8FE56FE58EED6DE5CBDCABDCC4
:104E1C00EDE42FED8DDC68B327AB67BB06B3A4AA1A
:104E2C00A4AA48C385A286A2467AC0480249E24099
:104E3C00234143412341234123410339C228E32821
:104E4C00C3200010A2284C7BCFA3CE9BAE9BCEA33D
:104E5C0030B471BC91C4D2C4B2BCB1BC91B491B4E5
:104E6C00B1BCD1BCD1C4F1C4D1C4B0C4B0C4AFC402
:104E7C008FC46EC46ECCAECCAECC6DC4AECCAECC4E
:104E8C004DBC0DBC2EBC0EBC67A2628166A2A6B244
:104E9C0003A247C3CCEC04A3E39A04A345AB66B3CB
:104EAC00A6B3E6B3C5AB27BC6EB46DB48DBCCDC494
:104EBC008CBC4BB4CAA34CACCFBCCFBCCEBCADB439
:104ECC008DB4CEBCAEBCCFC4CEBCEEC40FC5EEC44C
:104EDC00CEBCCEBCCEBCADBC8DB46CB46CBC8CBCEE
:104EEC006CBC6CBC6CC48CC4EECC0ECD2ED52ED54B
:104EFC002ED52ED52EDD4FDDCDCCCDCCEECC0FD599
:104F0C004FDD70E590E56FE58EE5ECDCABD42DE57F
:104F1C006FF52EF56BD406AB68BBEACBC9CB47BBA0
:104F2C00C5AA27B3039285A2499BA369E148024114
:104F3C00234143494349234122410339E3300329A7
:104F4C00E32861182010275A0B8BEB824C93CEA3CD
:104F5C002FB471BCD2C4F2C4D2C4B2BCB2BCB1B412
:104F6C00D1BCD2C4F2C4F2C4F1C4D1C4D1C4B0C453
:104F7C00AFCC8ECC8ECCAECCAECC6DC48EC48EC42D
:104F8C002DBC0DB44EBC2EBCACC367A2259AE391CC
:104F9C0023A20ADCCCE446ABE49AE49A46AB87B392
:104FAC0086B3E7BBC6AB27BCAFBCAFBCEFC40EC56A
:104FBC00ADBC4CACAA9B2CACCFBCCEBCEEBCADB447
:104FCC008CB4ADBCAEBCCFC4CEBCEEC40FC5EEC46D
:104FDC00CEBCADBC8DB48DBC4CB44CB46CBC8DBCD7
:104FEC008DC48CC48CC48DC40ECD2ECD4FD54FD555
:104FFC002ED52ED52EDD4FDD2ED50ED52FD52FD57A
:10500C004FDD90E5B0ED90E52DDDECDC0DDD4DEDEB
:10501C004DED2EEDACDC68BBA9C3EACB0BD42BD485
:10502C0027B3649AE06803922CC4A68AE0484251E4
:10503C002241434963494249234122390331E22841
:10504C00C328A2200010A549697269720B8BCEA3EC
:10505C000FB471BCD2CCD2C4D2C4B2BCB2BCB2BC40
:10506C00D2BCF2C4F2C4F2C4F2C4F1C4D1C4D0CCE8
:10507C00AFCCAFCCAECCAECCCECC6DC46DC46DC40D
:10508C000CB40DB46EC48FC44FD42ED4ABC3ABCB05
:10509C004CE450FD0ACC26A3C49AA49226ABA7B329
:1050AC0087B308BCE7B369BCB0B4F1BCEFBCEEBCD1
:1050BC0030CDADBCCA9B6DACCFBCEFBCEEBCCDB49F
:1050CC00CDB4CDBCCEBCCEBCCEBCEEC4EEC4EEBC1E
:1050DC00CEBCADBC8DB46CB46CB48DBCADC4CDC405
:1050EC00ADC46CBC6CBCADC4EEC46FD54FD54FD544
:1050FC002ED54FDD0ED52ED52FDD70DD70DD2FDDDD
:10510C0050DDB1EDB1ED6FE50DDD0DDD6EED4DED6D
:10511C004DED4DEDEDECA8BB89BB2CD4AEDC8EDC9B
:10512C008ED448B3C6A288BB2BCC0BBCA369E14878
:10513C004349635163514249424943412339233125
:10514C00C228C2286020C651C6616D9BCEA38DA318
:10515C00EFAB50BCB2C4B2C4B2C4B2BCB2BCD3BCD0
:10516C00D2BCF2C433CD13C512C512C5F1C4D0CC18
:10517C00D0CCCFCCAFCCAECCCED4AECC8DC46DBC61
:10518C004DBC0CB4CCAB8BA34ECCD0E4F0EC30FDCE
:10519C0071FD8CE467B367B3E59AC49205A387B33A
:1051AC0087B3E8BB28BC89BC12BD33C511BD51C542
:1051BC0071CDEFBC6EB48EB4CFBCEFBCEEBCEDB415
:1051CC00CDB4CDBCCDBCCEBCCEBCEEC4EEC4CEBC3E
:1051DC00CEBC8DBC6DB48DB48DBCADC4CEC4EECC88
:1051EC00EECCADC4ADC4EECC0ECD4FD54FD54FD516
:1051FC002ED50ED5EDD40EDD2ED54FDD70DD90E520
:10520C00B1EDB1ED6FE50ED52EDD2EE58FED6EED2A
:10521C006DED4DED0DEDC8C3AABB4ECCD0DCD1DC91
:10522C00F0DC8DCC2BC42ACC6BD46CCC6582215198
:10523C006351634963518351635143492339233982
:10524C00E330E2308020275AAA8291BC71BCCEABED
:10525C00EEABEFAB71BC92C492BCD3C4D3C4F3C459
:10526C00F3BCF3C433CD13C532C512CD11C5F1CC8B
:10527C00F0CCF0D4EFD4CECCCECCCECCADC48DBC57
:10528C006DBC4DBC0CB4ECAB6AAB2DC4CFE4EFECF5
:10529C008CDCA8BB46AB87B325A3E49A059B66AB15
:1052AC0086B3E7BB68BCA9BCB5CD74C5B4CDD3D5AA
:1052BC00B2D530C5AEB4AFB4F0BC0FBD0EBDEDB4BD
:1052CC00EDB4EDBCEDBCEEBCEEBCEEBCCEBCCEBCCD
:1052DC00CEBC8DBC8DB4ADBCAEBCCEC4EEC40FCDBB
:1052EC002FCD0FCDEECC0FCD90D590D590DD6FDDC1
:1052FC002ED5ADCCACCCEED42FDD4FDD70E590E5EA
:10530C0070E54FDD2EDD0ED54FE56FE58FED8EEDA3
:10531C008EED8DF52DEDE9C3AABB6FCC32DD53E5D7
:10532C0032DD51DD2EDDCCD46BD4ADD4289B415174
:10533C0083516349835183518351424943412339FA
:10534C000331E230C128CA72EFAB13CD91C4EFAB7D
:10535C00AEA3AEA330B451B431B492BCB2BCD3BC86
:10536C00F3BC13C554CD13C532CD32CD32CD11CDD6
:10537C0011CD10D510D5EFCCEFCCCECCAEC48DC4A6
:10538C008DBC6DBC4DBC2DB42CBCCAB3A9C3C9C358
:10539C0088BBA7B3C7BBA7B365AB249B049345A33A
:1053AC00A6B3E7BBC9CCC8C4F7D5F6D577E6B3D559
:1053BC0030BDAEB42DA4D0BC10BD0FBD0EBDEDBC28
:1053CC00EDBCEDBCEEBCEEBCEEC4EEBCCEBCCEBCBB
:1053DC00CEC48DBC8DBCCEC4CEC4EEC4EFC40FCD38
:1053EC0050D530CD2FCD50CD70D550D590DD4FD57B
:1053FC004FDDCDCCEDD42FDD4FDD70E570E54FDD0D
:10540C000ED5EED40ED56FE590ED90EDB0EDAFED81
:10541C00AEF58EF52DED2ACCCABBAFCC53DDB5E580
:10542C0073DD92E54FDD0EDDACDCCDDC89A34151A3
:10543C00A3518351A451A35183514349644944411D
:10544C000331E23002398C8B71B491BC30B4EFABC8
:10545C00AEA3AEA3CFAB8E9B51B4B2BCF3BC14C500
:10546C0034C534CD74CD54CD33CD32CD32CD12CDF7
:10547C0011CD11D510D5F0CCEFCCCFC4AEC4AEC489
:10548C008EC46DBC4DBC4CBC6BBCC9BBA8BBA8C30B
:10549C0087BBA6B3E6BBA6B385AB44A3039364A3B7
:1054AC00C6B306BC09CDE8C458DE99EE16DE8FAC47
:1054BC00EC9BAA930DA4D0BC11C510BDEFBCEEBCE7
:1054CC00EEBC0EC5EFC4EFBC0EC5EEBCCEBCCEBC64
:1054DC00EEBCADBCADBC0FC5EEC40FC50FC52FCD1A
:1054EC0070CD70D550CD70CD50D550D570DD0FD559
:1054FC00EED4CDCC0ED50EDDEED42FDD50DD2FDD70
:10550C00EED4EED44FDD90E5B0EDD0EDB0EDD0EDB6
:10551C00AFED8FF52EED6BD4EBBBD0D453D5B5DD01
:10552C00F5E5F4ED70DD2EDD0DE52EE5CAAB62512F
:10553C00A451A451E559C451A4516349A5516441E6
:10554C004439033903392B8371B450B430B42FB4BC
:10555C000FACAEA32C932C8BCFA392B4F3BC34C55D
:10556C0055C514C534C554CD53CD53CD32CD12CD04
:10557C0012CD11D511D510CDF0CCEFC4CEC4AEC424
:10558C008EC46DBC4CBC2CBC2AB40ABCC9C3C8C3E9
:10559C00E7C3C6BBA6B3A6B385B364A3239364A326
:1055AC00C6BB06BC09D5E8C4DAEE58DE6FA48B8BFB
:1055BC00AB9329836EAC11C511C510C5EFBCEEBC05
:1055CC00EEBC0FC50FC5EFC4EEBCEEBCCEBCCEBC62
:1055DC00EEBCADBCCEBC0FC50FC50FCD0FC530CDCD
:1055EC0071D591D571CD91D591D5B1DD91DD0ED51A
:1055FC00ADCCADCCEED4CED4ADCCADCCCED4EED4F3
:10560C000ED54FDD70E590E5D0EDD0EDB0E5D1EDE8
:10561C00B0ED8FF52EEDADDCCABBEFCC73D5B4D5A8
:10562C00D4DDD3E570DD2FDD4EED90EDCAABA35983
:10563C00A451A449E559E559C559844984496441A3
:10564C0064412339E230075A2FACD2BCB1BC50B400
:10565C0050B4AD9BEB828E9310A4B2B4D3B4F4BC13
:10566C0034C534C534C554C553CD53CD53CD33CDCA
:10567C0032CD32D532CD31CDF0CCCFC4CFC4CEC4A7
:10568C00AEC46DBC2CBC2CBC4AB42AC488BB66BB53
:10569C00E7C307C4A6BBC6BB65AB64A3449B65ABA1
:1056AC00A6B327C4E9CC08C5D6CDF2B4AC8BAB936A
:1056BC002DA4AB93D0BC32CD31CD10C50FBDEEBCFB
:1056CC00EFBC0FC5F0C4CFC4EEBCEEBCCEBCCEBCA0
:1056DC00EEBCCEBCCEC40FC50FC52FC50FC530CD8B
:1056EC0091D591D591D591D591D591DD91DD2FD5D0
:1056FC00CDCC0ED52FDDEEDC8CCC6CC48CC4EED4B2
:10570C004FDD70E570E590EDCFEDF0EDB0E5F1ED2E
:10571C00B1ED90ED2FEDEEE40BC4AEC451D593D5A5
:10572C0093D572D571DD70E58FF590ED689BA35123
:10573C00A449C5510652E559E559A55185498541FC
:10574C0085414439E3300339A9720EA42FAC2FAC38
:10575C002FACAD9B4C8BEB82CF9BD2B4F3BCF4BC87
:10576C0054C554C554C554C554CD54D554D533CD56
:10577C0033CD32CD32CD32CDF1CCD0C4CFC4CFC4A9
:10578C00AEC46DBC2CBC2CBCE9ABEABBA8C387C3B4
:10579C00C8C3E7BBA6BBA7BB65B365A365A386ABB4
:1057AC0086B348CCEAD42ACDCE8BAD8B8FAC2DA44E
:1057BC002DA44DACF0BC52CD32CD31C5F0C4EFBCF4
:1057CC00EFC4EFC4F0C4CFC40EC50EC5EEBCEEBC26
:1057DC00EEC4EEBCCEC40FC50FC52FC52FC530CD42
:1057EC0071D5B2D591D5B2D591D5B2DD91DD91E51A
:1057FC00EED40EDD0EDDCDD46CC44CC4ADCC4FDD7F
:10580C00B1ED90E56FE590E5CFE510EED0E5F2ED6A
:10581C0091E590ED4FED0EE5ADD44CBCEFC472CDDF
:10582C0093D551D5B2E5B1ED8FF570E5C6828351B4
:10583C00C5490652265AE559E659E659C551A549B6
:10584C00854164412439C230A13047622B83EE9BE1
:10585C00CE9BAD9BAD93865145492D8371A4B2ACC3
:10586C00D3B4F3B434BD54C554CD54D554D533CD81
:10587C0033CD33CD32CD32CD11C5F0C4CFC4CFC46E
:10588C008EC44DBC2CBC2CBC0AB4C9BB68C367BB52
:10589C00A7BBC7BBC7BB86BB66B366AB86ABA6B3A1
:1058AC0086B349CCEAD46BD56B938B938FACD1B4C4
:1058BC008FA4F1AC93BD93C572C572C5F0BCEFC497
:1058CC00CFBC10C5EFBCEFBCCFC4EFC4EFC4EFC46A
:1058DC00EEC4CDC4CDC40EC50EC54FCD70CD50CDCC
:1058EC0050CD91D5B3D5D3D5D3C5D3CDD3DD72E5BA
:1058FC000FDDEEE48CDC2ACC2BC4CED451DD93DD51
:10590C00B3DDB2DD90DDD0DDD1E5D1E5F1EDD0ED4B
:10591C008FED8FED6FED2EE5EED4EED4AEC410CD41
:10592C0031D571DDD3E5B2E5B3E531CDE461C459D0
:10593C00C45905622662E559E551265A275AC549CC
:10594C00A4418441433943390339A6512762EB8280
:10595C00CEA3AEA32C8BE6598128C649B2AC4C7BA6
:10596C004C7B92ACF3BC34CD54C553C574CD73CDC4
:10597C0053CD52CD32CD11C5F1C410C5D0C4AFBC7E
:10598C008FBC4EBC0DB40DBCAABB89B348AB68B37D
:10599C0087B387B3A7BBA7BB65B344ABC6B3C5B3CB
:1059AC00C5ABA8C44AD5ACE5AB9BCC9B6EAC6FA485
:1059BC00B0A473BDB4C573BD93C572CD10C510C56D
:1059CC00EFBC10C5CFBCCFBCAFBCCFC4EFC4EFC4D1
:1059DC00EFC4EEC4CDC40EC52FCD6FCD70D570CD38
:1059EC0071CD92D5B3D5D3DDD3CDD4D592DD71DDC8
:1059FC0050E58DDC2BCC6CD4AED410DD72DDB2E571
:105A0C00B2E5B2E5B1E5D1E5D1E5D1E5D1EDD0ED29
:105A1C008FED8FED6FED0EDDEED40FD5EFCC30D5D5
:105A2C0051DD92DDD3E5D2E5F4E50CACC461C4598B
:105A3C000562056226622662265A475A475AE65183
:105A4C00C549A44163396339A230C6590762076A54
:105A5C004C93AD9BEA82C659E3380339AA6A896232
:105A6C006D83B2B413C5D3BC54C553C574CD53CDDB
:105A7C0033CD32CD32CD11C511C5F0C4D0C4AFC4B5
:105A8C008FBC4EBC2DBCEDB369B369B348AB68B3E6
:105A9C0087B387B3C7BBC7BB65B365AB07BC06BCD5
:105AAC00E6B3A9CCCCE52EF6ECA32EA46EAC4E9CA2
:105ABC00D0ACD5C5F5CD94C573C572C531C511C56E
:105ACC0010BD10C5CFBCCFBCAFBCEFC410C510C54A
