:020000040800F2
:100000000050002021020008270200082B020008EF
:1000100043020008470200085F02000800000000D9
:10002000000000000000000000000000770200084F
:100030007B020008000000007F0200088302000825
:100040009102000891020008910200089102000844
:100050009102000891020008E104000891020008E2
:100060009102000891020008910200089102000824
:100070009102000891020008910200089102000814
:100080009102000891020008910200089102000804
:1000900091020008910200089102000891020008F4
:1000A00091020008910200089102000891020008E4
:1000B00091020008910200089102000891020008D4
:1000C00091020008910200089102000891020008C4
:1000D00091020008910200089102000891020008B4
:1000E000910200089102000891020008000000003F
:1000F0000000000000000000000000000000000000
:1001000000000000000000005FF808F100B583B0B7
:1001100000F0DEF8304B314A1360314A1360314B46
:10012000314A32498B4204D21168196004330432D7
:10013000F7E72A4B1A682E4B9A4200D0FEE7284B6D
:100140001A682C4B9A42F9D1234B2B4A13602B4A45
:1001500013602B4B02E000221A600433294A9342B9
:10016000F9D3254B1B6813B9244B1B6803B1FEE779
:1001700000F0BAF8694601A800F0A2F8224C234B1F
:10018000E41AA4100025AC4214DC214C214BE41AE3
:10019000A4100025AC4213DC0099019800F00AFB82
:1001A00005461D4C1D4BE41AA410002C0EDC2846FD
:1001B00000F084F8154B53F8253098470135E2E7F5
:1001C000144B53F8253098470135E3E7013C134BB6
:1001D00053F824309847E8E7BABADECA0000002096
:1001E00020000020000000202C080008240000202F
:1001F00078563412325476982400002030000020C3
:100200002400002034000020BC020008BC020008CA
:10021000BC020008BC020008BC020008BC020008C6
:1002200008B5FFF773FF00BEFEE71EF0040F0CBF1A
:10023000EFF30880EFF309807146124A104700BEC1
:10024000FEE700BEFEE71EF0040F0CBFEFF30880D0
:10025000EFF3098071460C4A104700BEFEE71EF01E
:10026000040F0CBFEFF30880EFF309807146074AD3
:10027000104700BEFEE700BEFEE700BEFEE700BE80
:10028000FEE770473F0200085B02000873020008A7
:0402900000BEFEE7C7
:100294002C08000800000020240000202C0800087E
:1002A40000000000000000002400002034000020B2
:0802B400000000000000000042
:1002BC00FEE7000001230360014B0B60704700BF99
:1002CC000400002008B500F073F8024A024B9A6053
:1002DC0008BD00BF0000000800ED00E008B500F00C
:1002EC008FF808BD82B00023019300932C4A136849
:1002FC0043F4803313602A4B1B6803F400330093E0
:10030C00019B01330193009B1BB9019BB3F5A06FBB
:10031C00F1D1234B1B6813F4003F06D0012300934B
:10032C00009B012B04D002B0704700230093F7E729
:10033C001C4B1A6842F010021A601A6822F0030271
:10034C001A601A6842F002021A60A3F580535A68C8
:10035C005A605A685A605A6842F480625A605A6805
:10036C0022F47C125A605A6842F4E8125A601A68F5
:10037C0042F080721A600A4B1B6813F0007FFAD0AF
:10038C00074B5A6822F003025A605A6842F0020284
:10039C005A60034B5B6803F00C03082BF9D1C2E7DE
:1003AC00001002400020024008B5FFF79BFF08BD7B
:1003BC0008B5104B1A6842F001021A6059680E4ACF
:1003CC000A405A601A6822F0847222F480321A6051
:1003DC001A6822F480221A605A6822F4FE025A60CB
:1003EC004FF41F029A60FFF7DFFF044B4FF00062DF
:1003FC009A6008BD001002400000FFF800ED00E01C
:10040C001F4B5B6803F00C03042B15D0082B17D083
:10041C001BB11C4B1C4A1A6002E01A4B1A4A1A6098
:10042C00174B5B68C3F30313184AD35CDAB2154954
:10043C000B68D3400B607047124B134A1A60EFE7FE
:10044C000F4A53685268C3F38343023312F4803F5C
:10045C000AD00B4A526812F4003F0BD00C4A02FB34
:10046C0003F3084A1360DBE7094A02FB03F3054A6E
:10047C001360D5E7044A02FB03F3024A1360CFE78B
:10048C00001002401C00002000127A000C0000201A
:10049C0000093D00054B00221A604FF0FF325A61F3
:1004AC00DA6842F00102DA60704700BF00040140D4
:1004BC000F2806D803490B68012202FA00F01843F2
:1004CC00086070470004014008B1014A1060704791
:1004DC002C00002008B5044B1B689847034A53694D
:1004EC0043F00103536108BD2C00002000040140BF
:1004FC0010B4012827D018B1022847D010BC70477F
:10050C00072912D90E29F9D8A1F10804E4B2314B0C
:10051C005968A4000F20A04021EA000159605868D6
:10052C0002FA04F101435960E8E72A4B1868890084
:10053C000F248C4020EA04001860186802FA01F1BC
:10054C0001431960DAE7072912D90E29D6D8A1F18F
:10055C000800C0B2204B596880000F24844021EA67
:10056C00040159605C6802FA00F121435960C5E747
:10057C00194B186889000F248C4020EA040018607D
:10058C00186802FA01F101431960B7E7072912D97B
:10059C000E29B3D8A1F10803DBB2104841689B00C7
:1005AC000F249C4021EA04014160446802FA03F1E3
:1005BC0021434160A2E7094B186889000F248C4045
:1005CC0020EA04001860186802FA01F1014319606E
:1005DC0094E700BF00080140000C014000100140EE
:1005EC00012817D010B1022827D07047012A0AD051
:1005FC00002A2DD11A48C368012202FA01F123EA1C
:10060C000101C16070471648C36802FA01F1194331
:10061C00C1607047012A09D0D2B91248C3680122BF
:10062C0002FA01F123EA0101C16070470D48C36869
:10063C0002FA01F11943C1607047012A09D03AB995
:10064C000948C368012202FA01F123EA0101C160E1
:10065C0070470548C36802FA01F11943C16070473D
:10066C0000080140000C01400010014001280BD093
:10067C0010B1022810D070470B48C368012202FA4F
:10068C0001F15940C16070470848C368012202FA61
:10069C0001F15940C16070470548C368012202FA54
:1006AC0001F15940C160704700080140000C014045
:1006BC0000100140014B024A1A6070470CED00E03B
:1006CC000005FA051F2809D93B2806D82038C0B2E6
:1006DC00012303FA00F0044B18607047012303FA5E
:1006EC0000F0024B1860704704E100E000E100E00C
:1006FC001F2809D93B2806D82038C0B2012303FA99
:10070C0000F0044B18607047012303FA00F0024B11
:10071C001860704784E200E080E200E03B2808D8D3
:10072C0042EA8102D2B200F1604000F5644012014D
:10073C0002707047034B4FF480321A60043301226D
:10074C001A607047001002401F291CD801280BD0DA
:10075C0010B1022810D07047012303FA01F10A4AA4
:10076C0013680B4313607047012303FA01F1074A26
:10077C0013680B4313607047012303FA01F1044A19
:10078C0013680B4313607047141002401C10024096
:10079C001810024008B505210020FFF767FF07215C
:1007AC000020FFF763FF08BD08B5FFF7C3FF00216A
:1007BC000220FFF7C9FF02210846FFF7C5FF0822F8
:1007CC0000210846FFF794FE012200210846FFF79E
:1007DC0007FF022205210020FFF78AFE02220721D3
:1007EC000020FFF785FE012207210020FFF7F8FE0D
:1007FC000A48FFF769FEFFF75DFFFFF74BFE00208D
:10080C00FFF756FE012211460620FFF787FF062050
:10081C00FFF758FF0620FFF76BFFFEE7A107000864
:10082C007856341228000020000000000000000060
:10083C0000000000010203040607080900A24A0494
:04084C003254769814
:040000050800010DE1
:00000001FF
