:020000040800F2
:100000000050002021020008270200082B020008EF
:1000100043020008470200085F02000800000000D9
:10002000000000000000000000000000770200084F
:100030007B020008000000007F020008F9080008A9
:100040009102000891020008910200089102000844
:100050009102000891020008910200089102000834
:100060009102000891020008910200089102000824
:100070009102000891020008910200089102000814
:100080009102000891020008910200089102000804
:1000900091020008910200089102000891020008F4
:1000A00091020008910200089102000891020008E4
:1000B00091020008910200089102000891020008D4
:1000C00091020008910200089102000891020008C4
:1000D00091020008910200089102000891020008B4
:1000E000910200089102000891020008000000003F
:1000F0000000000000000000000000000000000000
:1001000000000000000000005FF808F100B583B0B7
:1001100000F0DEF8304B314A1360314A1360314B46
:10012000314A32498B4204D21168196004330432D7
:10013000F7E72A4B1A682E4B9A4200D0FEE7284B6D
:100140001A682C4B9A42F9D1234B2B4A13602B4A45
:1001500013602B4B02E000221A600433294A9342B9
:10016000F9D3254B1B6813B9244B1B6803B1FEE779
:1001700000F0BAF8694601A800F0A2F8224C234B1F
:10018000E41AA4100025AC4214DC214C214BE41AE3
:10019000A4100025AC4213DC0099019800F0C8FBC4
:1001A00005461D4C1D4BE41AA410002C0EDC2846FD
:1001B00000F084F8154B53F8253098470135E2E7F5
:1001C000144B53F8253098470135E3E7013C134BB6
:1001D00053F824309847E8E7BABADECA0000002096
:1001E00020000020000000207009000824000020EA
:1001F00078563412325476982400002034000020BF
:100200002400002038000020BC020008BC020008C6
:10021000BC020008BC020008BC020008BC020008C6
:1002200008B5FFF773FF00BEFEE71EF0040F0CBF1A
:10023000EFF30880EFF309807146124A104700BEC1
:10024000FEE700BEFEE71EF0040F0CBFEFF30880D0
:10025000EFF3098071460C4A104700BEFEE71EF01E
:10026000040F0CBFEFF30880EFF309807146074AD3
:10027000104700BEFEE700BEFEE700BEFEE700BE80
:10028000FEE770473F0200085B02000873020008A7
:0402900000BEFEE7C7
:1002940070090008000000202400002070090008F4
:1002A40000000000000000002400002038000020AE
:0802B400000000000000000042
:1002BC00FEE7000001230360014B0B60704700BF99
:1002CC000400002008B500F073F8024A024B9A6053
:1002DC0008BD00BF0000000800ED00E008B500F00C
:1002EC008FF808BD82B00023019300932C4A136849
:1002FC0043F4803313602A4B1B6803F400330093E0
:10030C00019B01330193009B1BB9019BB3F5A06FBB
:10031C00F1D1234B1B6813F4003F06D0012300934B
:10032C00009B012B04D002B0704700230093F7E729
:10033C001C4B1A6842F010021A601A6822F0030271
:10034C001A601A6842F002021A60A3F580535A68C8
:10035C005A605A685A605A6842F480625A605A6805
:10036C0022F47C125A605A6842F4E8125A601A68F5
:10037C0042F080721A600A4B1B6813F0007FFAD0AF
:10038C00074B5A6822F003025A605A6842F0020284
:10039C005A60034B5B6803F00C03082BF9D1C2E7DE
:1003AC00001002400020024008B5FFF79BFF08BD7B
:1003BC0008B5104B1A6842F001021A6059680E4ACF
:1003CC000A405A601A6822F0847222F480321A6051
:1003DC001A6822F480221A605A6822F4FE025A60CB
:1003EC004FF41F029A60FFF7DFFF044B4FF00062DF
:1003FC009A6008BD001002400000FFF800ED00E01C
:10040C001F4B5B6803F00C03042B15D0082B17D083
:10041C001BB11C4B1C4A1A6002E01A4B1A4A1A6098
:10042C00174B5B68C3F30313184AD35CDAB2154954
:10043C000B68D3400B607047124B134A1A60EFE7FE
:10044C000F4A53685268C3F38343023312F4803F5C
:10045C000AD00B4A526812F4003F0BD00C4A02FB34
:10046C0003F3084A1360DBE7094A02FB03F3054A6E
:10047C001360D5E7044A02FB03F3024A1360CFE78B
:10048C00001002401C00002000127A000C0000201A
:10049C0000093D0010B4012827D018B1022847D01C
:1004AC0010BC7047072912D90E29F9D8A1F10804FC
:1004BC00E4B2314B5968A4000F20A04021EA00019E
:1004CC005960586802FA04F101435960E8E72A4B75
:1004DC00186889000F248C4020EA04001860186802
:1004EC0002FA01F101431960DAE7072912D90E2942
:1004FC00D6D8A1F10800C0B2204B596880000F2457
:10050C00844021EA040159605C6802FA00F121433D
:10051C005960C5E7194B186889000F248C4020EAF4
:10052C0004001860186802FA01F101431960B7E77A
:10053C00072912D90E29B3D8A1F10803DBB2104850
:10054C0041689B000F249C4021EA040141604468EF
:10055C0002FA03F121434160A2E7094B18688900B4
:10056C000F248C4020EA04001860186802FA01F18C
:10057C000143196094E700BF00080140000C0140E2
:10058C0000100140012817D010B1022827D0704765
:10059C00012A0AD0002A2DD11A48C368012202FA76
:1005AC0001F123EA0101C16070471648C36802FAE1
:1005BC0001F11943C1607047012A09D0D2B9124820
:1005CC00C368012202FA01F123EA0101C1607047FC
:1005DC000D48C36802FA01F11943C1607047012A42
:1005EC0009D03AB90948C368012202FA01F123EA99
:1005FC000101C16070470548C36802FA01F1194353
:10060C00C160704700080140000C0140001001401F
:10061C0008B5012208211046FFF7B4FF0122092179
:10062C001046FFF7AFFF01220A211046FFF7AAFF81
:10063C0001220B211046FFF7A5FF01220C211046C9
:10064C00FFF7A0FF01220D211046FFF79BFF0122AF
:10065C000E211046FFF796FF01220F211046FFF7DF
:10066C0091FF08BD10B5044600F0010200210846B8
:10067C00FFF788FFC4F3400201210020FFF782FF3F
:10068C00C4F3800202210020FFF77CFFC4F3C002F8
:10069C0003210020FFF776FFC4F300120421002091
:1006AC00FFF770FFC4F3401205210020FFF76AFF2B
:1006BC00C4F3801206210020FFF764FFE209072132
:1006CC000020FFF75FFF10BD08B50222002108468D
:1006DC00FFF7E0FE022201210020FFF7DBFE0222E1
:1006EC0011460020FFF7D6FE022203210020FFF75F
:1006FC00D1FE022204210020FFF7CCFE02220521AC
:10070C000020FFF7C7FE022206210020FFF7C2FEE1
:10071C00022207210020FFF7BDFE02220821012042
:10072C00FFF7B8FE022209210120FFF7B3FE0222D7
:10073C000A210120FFF7AEFE02220B210120FFF758
:10074C00A9FE02220C210120FFF7A4FE02220D219A
:10075C000120FFF79FFE02220E210120FFF79AFED7
:10076C0002220F210120FFF795FE08BD08B50446B3
:10077C00FFF74EFF2078FFF775FF002208210120BC
:10078C00FFF700FF40F6C41000F09AF8FFF740FFA7
:10079C006078FFF767FF002209210120FFF7F2FEC6
:1007AC0040F6C41000F08CF8FFF732FFA078FFF78A
:1007BC0059FF00220A210120FFF7E4FE40F6C41085
:1007CC0000F07EF8FFF724FFE078FFF74BFF0022E4
:1007DC000B210120FFF7D6FE40F6C41000F070F894
:1007EC00FFF716FF2079FFF73DFF00220C210120B7
:1007FC00FFF7C8FE40F6C41000F062F8FFF708FFE0
:10080C006079FFF72FFF00220D210120FFF7BAFEC0
:10081C0040F6C41000F054F8FFF7FAFEA079FFF789
:10082C0021FF00220E210120FFF7ACFE40F6C41080
:10083C0000F046F8FFF7ECFEE079FFF713FF00221B
:10084C000F210120FFF79EFE40F6C41000F038F88F
:10085C008EE70000034B4FF480321A600433012200
:10086C001A607047001002401F291CD801280BD0B9
:10087C0010B1022810D07047012303FA01F10A4A83
:10088C0013680B4313607047012303FA01F1074A05
:10089C0013680B4313607047012303FA01F1044AF8
:1008AC0013680B4313607047141002401C10024075
:1008BC0018100240014B00221A60704710E000E053
:1008CC00094B58601A6842F001021A60064B1B680B
:1008DC0013F4803FFAD0044B1A6822F001021A601C
:1008EC0000225A609A60704710E000E008B50A4B8D
:1008FC001B689847094B1B785BB9094B1A6822F0A7
:10090C0002021A601A6822F001021A6000225A6070
:10091C009A60034B1B6808BD2C000020300000209F
:10092C0010E000E000B583B00B4B6C4693E803007D
:10093C0084E80300FFF78EFF02210846FFF794FFBF
:10094C0003210220FFF790FFFFF7B4FFFFF7BCFE77
:10095C002046FFF70BFFFEE7680900088444241CBF
:04096C002444840497
:10097000785634122800002000000000000000001B
:1009800000000000010203040607080900A24A044F
:0409900032547698CF
:040000050800010DE1
:00000001FF
