:020000040800F2
:100000000050002021020008270200082B020008EF
:1000100043020008470200085F02000800000000D9
:10002000000000000000000000000000770200084F
:100030007B020008000000007F02000801080008A1
:100040009102000891020008910200089102000844
:100050009102000891020008910200089102000834
:100060009102000891020008910200089102000824
:100070009102000891020008910200089102000814
:100080009102000891020008910200089102000804
:1000900091020008910200089102000891020008F4
:1000A00091020008910200089102000891020008E4
:1000B00091020008910200089102000891020008D4
:1000C00091020008910200089102000891020008C4
:1000D00091020008910200089102000891020008B4
:1000E000910200089102000891020008000000003F
:1000F0000000000000000000000000000000000000
:1001000000000000000000005FF808F100B583B0B7
:1001100000F0DEF8304B314A1360314A1360314B46
:10012000314A32498B4204D21168196004330432D7
:10013000F7E72A4B1A682E4B9A4200D0FEE7284B6D
:100140001A682C4B9A42F9D1234B2B4A13602B4A45
:1001500013602B4B02E000221A600433294A9342B9
:10016000F9D3254B1B6813B9244B1B6803B1FEE779
:1001700000F0BAF8694601A800F0A2F8224C234B1F
:10018000E41AA4100025AC4214DC214C214BE41AE3
:10019000A4100025AC4213DC0099019800F096FBF6
:1001A00005461D4C1D4BE41AA410002C0EDC2846FD
:1001B00000F084F8154B53F8253098470135E2E7F5
:1001C000144B53F8253098470135E3E7013C134BB6
:1001D00053F824309847E8E7BABADECA0000002096
:1001E0002000002000000020F80900082400002062
:1001F00078563412325476982400002034000020BF
:100200002400002038000020BC020008BC020008C6
:10021000BC020008BC020008BC020008BC020008C6
:1002200008B5FFF773FF00BEFEE71EF0040F0CBF1A
:10023000EFF30880EFF309807146124A104700BEC1
:10024000FEE700BEFEE71EF0040F0CBFEFF30880D0
:10025000EFF3098071460C4A104700BEFEE71EF01E
:10026000040F0CBFEFF30880EFF309807146074AD3
:10027000104700BEFEE700BEFEE700BEFEE700BE80
:10028000FEE770473F0200085B02000873020008A7
:0402900000BEFEE7C7
:10029400F80900080000002024000020F8090008E4
:1002A40000000000000000002400002038000020AE
:0802B400000000000000000042
:1002BC00FEE7000001230360014B0B60704700BF99
:1002CC000400002008B500F073F8024A024B9A6053
:1002DC0008BD00BF0000000800ED00E008B500F00C
:1002EC008FF808BD82B00023019300932C4A136849
:1002FC0043F4803313602A4B1B6803F400330093E0
:10030C00019B01330193009B1BB9019BB3F5A06FBB
:10031C00F1D1234B1B6813F4003F06D0012300934B
:10032C00009B012B04D002B0704700230093F7E729
:10033C001C4B1A6842F010021A601A6822F0030271
:10034C001A601A6842F002021A60A3F580535A68C8
:10035C005A605A685A605A6842F480625A605A6805
:10036C0022F47C125A605A6842F4E8125A601A68F5
:10037C0042F080721A600A4B1B6813F0007FFAD0AF
:10038C00074B5A6822F003025A605A6842F0020284
:10039C005A60034B5B6803F00C03082BF9D1C2E7DE
:1003AC00001002400020024008B5FFF79BFF08BD7B
:1003BC0008B5104B1A6842F001021A6059680E4ACF
:1003CC000A405A601A6822F0847222F480321A6051
:1003DC001A6822F480221A605A6822F4FE025A60CB
:1003EC004FF41F029A60FFF7DFFF044B4FF00062DF
:1003FC009A6008BD001002400000FFF800ED00E01C
:10040C001F4B5B6803F00C03042B15D0082B17D083
:10041C001BB11C4B1C4A1A6002E01A4B1A4A1A6098
:10042C00174B5B68C3F30313184AD35CDAB2154954
:10043C000B68D3400B607047124B134A1A60EFE7FE
:10044C000F4A53685268C3F38343023312F4803F5C
:10045C000AD00B4A526812F4003F0BD00C4A02FB34
:10046C0003F3084A1360DBE7094A02FB03F3054A6E
:10047C001360D5E7044A02FB03F3024A1360CFE78B
:10048C00001002401C00002000127A000C0000201A
:10049C0000093D0008B502220021012000F0A6F859
:1004AC00044800F0FBF9044800F08EF9034800F012
:1004BC00F5F908BD64090008C0C62D006C090008D8
:1004CC0038B505460C46084800F0E8F9284600F017
:1004DC00E5F9064800F0E2F9204600F0DFF904489F
:1004EC0000F0DCF938BD00BF940900088C09000845
:1004FC00A409000838B505460C460A4800F0CEF9A8
:10050C00284600F0CBF9084800F0C8F9204600F066
:10051C00C5F9064800F0C2F94FF47A7000F054F9AE
:10052C0038BD00BF7C090008900900086809000864
:10053C0010B50446064800F0B1F9204600F0AEF9BB
:10054C00044800F0ABF94FF47A7000F03DF910BD9F
:10055C003C0900086809000810B50446214800F061
:10056C009DF9204600F09AF91F4800F097F900F029
:10057C0089F93A28FBD100F085F9044601220021C3
:10058C00104600F0ABF8312C02D0302C15D010BD39
:10059C0003220021084600F029F801220021084618
:1005AC0000F09CF803220121002000F01FF800222B
:1005BC000121104600F092F8E9E7032200210846D9
:1005CC0000F014F800221146104600F087F80322C0
:1005DC000121002000F00AF801221146002000F051
:1005EC007DF8D4E7480900085409000810B4012824
:1005FC0027D018B1022847D010BC7047072912D950
:10060C000E29F9D8A1F10804E4B2314B5968A400C1
:10061C000F20A04021EA00015960586802FA04F149
:10062C0001435960E8E72A4B186889000F248C4075
:10063C0020EA04001860186802FA01F101431960FD
:10064C00DAE7072912D90E29D6D8A1F10800C0B2D1
:10065C00204B596880000F24844021EA0401596022
:10066C005C6802FA00F121435960C5E7194B186820
:10067C0089000F248C4020EA04001860186802FAE4
:10068C0001F101431960B7E7072912D90E29B3D834
:10069C00A1F10803DBB2104841689B000F249C4079
:1006AC0021EA04014160446802FA03F121434160EC
:1006BC00A2E7094B186889000F248C4020EA04003B
:1006CC001860186802FA01F10143196094E700BF41
:1006DC0000080140000C014000100140012817D017
:1006EC0010B1022827D07047012A0AD0002A2DD138
:1006FC001A48C368012202FA01F123EA0101C16020
:10070C0070471648C36802FA01F11943C16070477B
:10071C00012A09D0D2B91248C368012202FA01F1A8
:10072C0023EA0101C16070470D48C36802FA01F168
:10073C001943C1607047012A09D03AB90948C36806
:10074C00012202FA01F123EA0101C1607047054858
:10075C00C36802FA01F11943C160704700080140F7
:10076C00000C014000100140034B4FF480321A6022
:10077C00043301221A607047001002401F291CD854
:10078C0001280BD010B1022810D07047012303FAB6
:10079C0001F10A4A13680B4313607047012303FAF3
:1007AC0001F1074A13680B4313607047012303FAE6
:1007BC0001F1044A13680B43136070471410024094
:1007CC001C10024018100240094B58601A6842F085
:1007DC0001021A60064B1B6813F4803FFAD0044BDD
:1007EC001A6822F001021A6000225A609A6070475F
:1007FC0010E000E008B50A4B1B689847094B1B78C2
:10080C005BB9094B1A6822F002021A601A6822F0CE
:10081C0001021A6000225A609A60034B1B6808BDE3
:10082C002C0000203000002010E000E0144B0022CF
:10083C001A6045229A60DA6822F48052DA601A69EA
:10084C0022F400621A611A6942F400721A611A6980
:10085C0022F400521A611A6922F480521A611A6940
:10086C0022F480621A61DA6842F40052DA60DA68C3
:10087C0042F00802DA60DA6842F00402DA6070478B
:10088C0000380140044B1B6813F0200FFAD0024BC8
:10089C005868C0B2704700BF00380140002208E021
:1008AC0006494B60054B1B6813F0400FFAD0013220
:1008BC00D2B28356002BF3D1704700BF00380140F1
:1008CC0008B5FFF751FF02210846FFF757FF032138
:1008DC000220FFF753FF0E210220FFF74FFF0A22E1
:1008EC0009210020FFF782FE04220A210020FFF7D5
:1008FC007DFEFFF79BFFFFF7CDFD07490748FFF78C
:10090C00DFFD07490748FFF7F5FD0748FFF710FE25
:10091C000648FFF721FEF4E7A8090008B80900080B
:10092C00C4090008C8090008D8090008DC09000837
:10093C0041542B43495053454E443D0047455420A8
:10094C00687474703A2F2F002F7374617475732E42
:10095C007478740D0A000000415445300D0A0000F3
:10096C0041542B43574D4F44453D310D0A00000077
:10097C0041542B43495053544152543D22544350FB
:10098C00222C2200222C000041542B43574A415068
:10099C005F4355523D220000220D0A006D617269C1
:1009AC00616D7A616B617269796100005A616B618A
:1009BC007269796100000000383000003136322E47
:1009CC003235332E3135352E323237003438000083
:1009DC006B68616C696D6F7A6161726D2E667265A0
:0C09EC00657661722E636F6D00000000E4
:1009F8007856341228000020000000000000000093
:100A080000000000010203040607080900A24A04C6
:040A18003254769846
:040000050800010DE1
:00000001FF
