:020000040800F2
:100000000050002021020008270200082B020008EF
:1000100043020008470200085F02000800000000D9
:10002000000000000000000000000000770200084F
:100030007B020008000000007F0200088302000825
:100040009102000891020008910200089102000844
:100050009102000891020008D5050008F10500088A
:100060009102000891020008910200089102000824
:100070009102000891020008910200089102000814
:100080009102000891020008910200089102000804
:1000900091020008910200089102000891020008F4
:1000A00091020008910200089102000891020008E4
:1000B00091020008910200089102000891020008D4
:1000C00091020008910200089102000891020008C4
:1000D00091020008910200089102000891020008B4
:1000E000910200089102000891020008000000003F
:1000F0000000000000000000000000000000000000
:1001000000000000000000005FF808F100B583B0B7
:1001100000F0DEF8304B314A1360314A1360314B46
:10012000314A32498B4204D21168196004330432D7
:10013000F7E72A4B1A682E4B9A4200D0FEE7284B6D
:100140001A682C4B9A42F9D1234B2B4A13602B4A45
:1001500013602B4B02E000221A600433294A9342B9
:10016000F9D3254B1B6813B9244B1B6803B1FEE779
:1001700000F0BAF8694601A800F0A2F8224C234B1F
:10018000E41AA4100025AC4214DC214C214BE41AE3
:10019000A4100025AC4213DC0099019800F07EFB0E
:1001A00005461D4C1D4BE41AA410002C0EDC2846FD
:1001B00000F084F8154B53F8253098470135E2E7F5
:1001C000144B53F8253098470135E3E7013C134BB6
:1001D00053F824309847E8E7BABADECA0000002096
:1001E00020000020000000204C090008240000200E
:1001F00078563412325476982400002034000020BF
:100200002400002038000020BC020008BC020008C6
:10021000BC020008BC020008BC020008BC020008C6
:1002200008B5FFF773FF00BEFEE71EF0040F0CBF1A
:10023000EFF30880EFF309807146124A104700BEC1
:10024000FEE700BEFEE71EF0040F0CBFEFF30880D0
:10025000EFF3098071460C4A104700BEFEE71EF01E
:10026000040F0CBFEFF30880EFF309807146074AD3
:10027000104700BEFEE700BEFEE700BEFEE700BE80
:10028000FEE770473F0200085B02000873020008A7
:0402900000BEFEE7C7
:100294004C09000800000020240000204C0900083C
:1002A40000000000000000002400002038000020AE
:0802B400000000000000000042
:1002BC00FEE7000001230360014B0B60704700BF99
:1002CC000400002008B500F073F8024A024B9A6053
:1002DC0008BD00BF0000000800ED00E008B500F00C
:1002EC008FF808BD82B00023019300932C4A136849
:1002FC0043F4803313602A4B1B6803F400330093E0
:10030C00019B01330193009B1BB9019BB3F5A06FBB
:10031C00F1D1234B1B6813F4003F06D0012300934B
:10032C00009B012B04D002B0704700230093F7E729
:10033C001C4B1A6842F010021A601A6822F0030271
:10034C001A601A6842F002021A60A3F580535A68C8
:10035C005A605A685A605A6842F480625A605A6805
:10036C0022F47C125A605A6842F4E8125A601A68F5
:10037C0042F080721A600A4B1B6813F0007FFAD0AF
:10038C00074B5A6822F003025A605A6842F0020284
:10039C005A60034B5B6803F00C03082BF9D1C2E7DE
:1003AC00001002400020024008B5FFF79BFF08BD7B
:1003BC0008B5104B1A6842F001021A6059680E4ACF
:1003CC000A405A601A6822F0847222F480321A6051
:1003DC001A6822F480221A605A6822F4FE025A60CB
:1003EC004FF41F029A60FFF7DFFF044B4FF00062DF
:1003FC009A6008BD001002400000FFF800ED00E01C
:10040C001F4B5B6803F00C03042B15D0082B17D083
:10041C001BB11C4B1C4A1A6002E01A4B1A4A1A6098
:10042C00174B5B68C3F30313184AD35CDAB2154954
:10043C000B68D3400B607047124B134A1A60EFE7FE
:10044C000F4A53685268C3F38343023312F4803F5C
:10045C000AD00B4A526812F4003F0BD00C4A02FB34
:10046C0003F3084A1360DBE7094A02FB03F3054A6E
:10047C001360D5E7044A02FB03F3024A1360CFE78B
:10048C00001002401C00002000127A000C0000201A
:10049C0000093D0030B4032813D9072808D90B28CC
:1004AC000AD90F2822D8A0F10C03D8B2032309E0F3
:1004BC000438C0B2012305E0A0F10803D8B202232E
:1004CC0000E000230A4A023352F8234080000F2533
:1004DC00854024EA050442F8234052F8234001FAEF
:1004EC0000F0204342F8230030BC70470023E9E7BA
:1004FC0000000140054B00221A604FF0FF325A6198
:10050C00DA6842F00102DA60704700BF0004014073
:10051C000F2806D803490B68012202FA00F0184391
:10052C0008607047000401400F2807D804490B6885
:10053C00012202FA00F023EA00000860704700BFB5
:10054C000004014038B505460C46FFF7EDFF012CC1
:10055C0015D044B1022C1ED0144A10680123AB40B4
:10056C001843106038BD114B9968012202FA04F44B
:10057C0021439960DA6822EA0404DC60ECE70B4B57
:10058C009968012202FA04F421EA04019960DA68FC
:10059C001443DC60E0E7054A9168012303FA04F494
:1005AC0021439160D3681C43D460D5E7000401401B
:1005BC0008B1014A106070472C00002008B1014AB4
:1005CC00106070473000002008B5044B1B6898473A
:1005DC00034A536943F00103536108BD2C0000200A
:1005EC000004014008B5044B1B689847034A536943
:1005FC0043F00203536108BD3000002000040140A9
:10060C0010B4012827D018B1022847D010BC70476D
:10061C00072912D90E29F9D8A1F10804E4B2314BFB
:10062C005968A4000F20A04021EA000159605868C5
:10063C0002FA04F101435960E8E72A4B1868890073
:10064C000F248C4020EA04001860186802FA01F1AB
:10065C0001431960DAE7072912D90E29D6D8A1F17E
:10066C000800C0B2204B596880000F24844021EA56
:10067C00040159605C6802FA00F121435960C5E736
:10068C00194B186889000F248C4020EA040018606C
:10069C00186802FA01F101431960B7E7072912D96A
:1006AC000E29B3D8A1F10803DBB2104841689B00B6
:1006BC000F249C4021EA04014160446802FA03F1D2
:1006CC0021434160A2E7094B186889000F248C4034
:1006DC0020EA04001860186802FA01F1014319605D
:1006EC0094E700BF00080140000C014000100140DD
:1006FC00012817D010B1022827D07047012A0AD040
:10070C00002A2DD11A48C368012202FA01F123EA0A
:10071C000101C16070471648C36802FA01F1194320
:10072C00C1607047012A09D0D2B91248C3680122AE
:10073C0002FA01F123EA0101C16070470D48C36858
:10074C0002FA01F11943C1607047012A09D03AB984
:10075C000948C368012202FA01F123EA0101C160D0
:10076C0070470548C36802FA01F11943C16070472C
:10077C0000080140000C01400010014001280BD082
:10078C0010B1022810D070470B48C368012202FA3E
:10079C0001F15940C16070470848C368012202FA50
:1007AC0001F15940C16070470548C368012202FA43
:1007BC0001F15940C160704700080140000C014034
:1007CC0000100140014B024A1A6070470CED00E02A
:1007DC000005FA051F2809D93B2806D82038C0B2D5
:1007EC00012303FA00F0044B18607047012303FA4D
:1007FC0000F0024B1860704704E100E000E100E0FB
:10080C003B2808D842EA8102D2B200F1604000F5E0
:10081C006440120102707047034B4FF480321A602F
:10082C00043301221A607047001002401F291CD8A3
:10083C0001280BD010B1022810D07047012303FA05
:10084C0001F10A4A13680B4313607047012303FA42
:10085C0001F1074A13680B4313607047012303FA35
:10086C0001F1044A13680B431360704714100240E3
:10087C001C1002401810024008B505210020FFF79B
:10088C007DFF08BD08B507210020FFF777FF08BDE5
:10089C0008B5FFF7C1FF00210220FFF7C7FF0221B7
:1008AC000846FFF7C3FF03210220FFF7BFFF082212
:1008BC0000210846FFF7A4FE012200210846FFF79D
:1008CC0017FF082201210846FFF79AFE0122114664
:1008DC001046FFF70DFF022205210020FFF790FEC6
:1008EC00022207210020FFF78BFE1348FFF760FE62
:1008FC001248FFF763FEFFF765FFFFF7FBFD0121D1
:10090C000846FFF7C7FD0020FFF702FE012108464D
:10091C00FFF718FE012200210720FFF771FF0122CB
:10092C0011460620FFF76CFF0620FFF753FF072048
:10093C00FFF750FFFEE700BF85080008910800088C
:10094C00785634122800002000000000000000003F
:10095C0000000000010203040607080900A24A0473
:04096C0032547698F3
:040000050800010DE1
:00000001FF
